:020000040000FA
:06000000BEEF30F012001B
:02000600503078
:0600080042EF2AF0120095
:02000E001200DE
:0400100000000000EC
:020014000000EA
:0600180069EF2AF012005E
:02001E000400DC
:10002000AE610000B90200000400000014000000EE
:10003000FD0000000200000010000000B5020000FA
:10004000040000008D4E0000FF00000001000000D1
:1000500020EC0BF0010EB7EC0AF00DE075EC0BF0A4
:10006000EF6A43EC0BF04B0EC0EC0AF004E1C5EC78
:100070000AF0110EF56F020EE15C02E2E16AE55250
:1000800033EF0BF020EC0BF0000EB7EC0AF00CE0B5
:100090001EEC0CF0E66EE66A240EC0EC0AF004E1F9
:1000A000C5EC0AF0130EF56F020EE15C02E2E16AA4
:1000B000E55233EF0BF020EC0BF0200E0001EF5D6A
:1000C00023E2010E106E116A126A136AEF511F0BC0
:1000D00007E0D8901036113612361336E806F9E1EB
:1000E000000EE96E0F0EEA6EEE501016EE5011166D
:1000F000EE501216EE50131610501110121013106D
:1001000003E10001EF2BD9D7200E0001EF5D20E2C3
:10011000010EB7EC0AF024E075EC0BF0EFC0EFFF36
:10012000040E0001F55D0AE143EC0BF04B0EC0EC50
:100130000AF016E1C5EC0AF0050E0FD043EC0BF007
:100140000F0EC0EC0AF00CE1C5EC0AF0150E05D05C
:10015000040EF55D04E1ED6B080EF56F01D024D8B7
:10016000020EE15C02E2E16AE55233EF0BF020ECB3
:100170000BF0000EB7EC0AF00BE01EEC0CF0E66E94
:10018000E66A110EC0EC0AF003E1C5EC0AF0F52BAB
:10019000020EE15C02E2E16AE55233EF0BF048EC5B
:1001A0000BF0F46BF56B12000101A28BE66A3EECDA
:1001B0000BF0070E18EC0BF0000903E00001160E1F
:1001C00002D00001190EF56F1200106A0001F551FE
:1001D000E76E1018E8AE02D0E73402D0E750105CAA
:1001E0000AE2160EE76EF519E8AE02D0E73402D047
:1001F000E750F55D01E3000C010C0F010451010B08
:1002000004E03551010B01E1010C04A50CD0800E76
:100210003315800807E1FF0E345D04E1000E35154B
:1002200001E1000C010C000C000C48EC0BF001018A
:10023000A29B0001F46BF56B120025EC0CF0100E84
:10024000E1260101955101E078D24C0E961901E1A9
:10025000975101E13ED23C0E961901E1975101E11F
:1002600018D2120E961901E1975101E1F9D13A0E17
:10027000961901E1975101E10AD1270E961901E182
:10028000975101E1FDD0250E961901E1975101E149
:10029000E3D0100E961901E1975101E1BBD0020E97
:1002A000961901E1975109E0965101E046D2975124
:1002B00001E043D20101A285F7D1010E38EC0BF029
:1002C000EF504B0A01E18BD0730A5DE01C0A59E044
:1002D000370A12E0020A03E0010A51E1BAD0030E24
:1002E0000001F55D02E1040E05D00D0EF55D01E0A3
:1002F00024D20E0EF56F21D20B0E0001F55D02E146
:100300000C0EE5D10F0EF55D35E122EC0CF0060880
:100310001AE1020E0101136A9A25126E9B511322F3
:1003200012C0E6FF13C0E6FF6FEC17F0E552E5528E
:1003300004C010F005C011F004C0E6FF05C0E6FFE0
:10034000D1EC0BF0F8D122EC0CF002080BE1E66ADC
:100350003EEC0BF00A0E18EC0BF0000901E1B5D1F0
:10036000000137D022EC0CF034E10101A28B000136
:10037000100EADD1180EF55D02E1190EA8D1000ED8
:10038000DDD100017BD00001FB510101981904E18E
:100390000001FC510101991905E00101A251040B72
:1003A00001E0C9D122EC0CF003E10001020E8FD173
:1003B00022EC0CF004080FE1E66A3EEC0BF0090EAB
:1003C00018EC0BF0000901E180D10101A2950001B8
:1003D000F4810A0E7CD1050E44EC0CF016D000011D
:1003E000F4A102D0120E73D1EFC010F0116A126A9C
:1003F000136AEFC0E6FF7FEC0BF00A0EAAEC0BF0DD
:10040000000903E00001010E02D00001020EED6FB1
:10041000080E5DD1150E0001F55D01E08ED124ECD2
:100420000BF0EFCFDFFF010E010138EC0BF0020EF5
:10043000EFCFDBFF38EC0BF0010EEFCFDBFF030E4D
:100440002AEC0CF0D9CFE6FFDACFE6FF0B0E18EC62
:100450000BF00001EF2B12D0070E38EC0BF0EF5031
:10046000010B02E00101A683070E010138EC0BF03D
:10047000EF50020B02E00101A6850001140E27D106
:1004800024EC0BF0EFCFEEF00101A28754D1070E60
:100490000001F55D01E04FD1F493010E0101116AF5
:1004A0009A25106E9B511122050E10C0DBFF060E1F
:1004B00011C0DBFF0E0EDB6A22EC0CF0F36E0E0EA9
:1004C000DBCFF4FFF350F45C01E388D0080E0001A9
:1004D000F55D01E183D0010E11EC0BF00D0EEFCFB5
:1004E000DBFF020E11EC0BF00C0EEFCFDBFFD9504F
:1004F0000C0FE96EDACFEAFF020EEE1808E1ED50BC
:1005000006E1040E11EC0BF0040EEFCFDBFF030E3F
:1005100011EC0BF0030EEFCFDBFFDB504EE00C0EC7
:10052000DBCF06F00D0EDBCF07F0070E06C0DBFFBA
:10053000080E07C0DBFF030EDB50E76E0A0EE7CFA5
:10054000DBFF090EDB6AF9EC0BF0EF50030806E263
:10055000040E11EC0BF0090EEFCFDBFF030EDB50A6
:10056000020802E1010E01D0020EF36E0B0EF3CF72
:10057000DBFF050E2AEC0CF0D950070FE66E000EDB
:10058000DA20E66E0D0E18EC0BF00B0EDB50020AB3
:100590000CE0030A12E0050A05E0040A06E1000186
:1005A000F4830BD00001010E05D0060E44EC0CF0D4
:1005B0000001020EED6F080EF56FF9EC0BF0EF285D
:1005C000106E116AD950050FE96EDACFEAFF1050AC
:1005D000EE261150ED220E0EDB2A6ED7080E00011A
:1005E000F55D01E1A8D0060EF56FF4B3A4D0F35188
:1005F000060A30E0030A2DE0010A23E0070A11E0B1
:10060000010A05E0030A23E0010A24E120D0F32BCC
:10061000F4DD00091FE10001F32B0F0105A305D054
:1006200008D0F32B0F0105B304D00001060EF36FC1
:1006300011D00001010EF06F1ACFF1F01BCFF2F0D4
:1006400009D00F011C510001D880F05503E2F32BB3
:1006500001D0F32B060E0001F35D6DE1EF2B15D0F9
:10066000030E0001F55D03E00D0EF55D66E124EC7F
:100670000BF0EFCFA5F1010E010138EC0BF0EFCF3D
:10068000A4F1030E0001F55D02E1040E20D00E0E70
:100690001ED022EC0CF004E187DD0101A6814BD0D5
:1006A00022EC0CF0040803E10001F56B44D024ECCB
:1006B0000BF0EFCF10F0116A126A136A10C0E6FF58
:1006C0007FEC0BF00F0EAAEC0BF00001170EF56F8C
:1006D00032D024EC0BF00F0EEFCFDBFFEF500DE12B
:1006E000010E38EC0BF0070EE926000EEA22EF505F
:1006F000020B03E00101A683A685090E2AEC0CF08B
:100700009AC1E6FF9BC1E6FF0C0E18EC0BF0000946
:100710000DE00F0EDB5004E10001F36B060E0AD072
:100720000F0EDB280001EF6F040E04D00001020E53
:10073000ED6F080EF56F010E01D0000E106E100E59
:10074000E15C02E2E16AE55261EF0BF00001F55174
:10075000160A37E0010A35E00F0A33E0010A31E0FA
:10076000190A32E0010A30E00B0A31E0010A2FE0F9
:10077000070A2DE0010A2BE0030A29E0010A27E01D
:100780001F0A25E0010A23E0030A21E0010A1FE015
:10079000070A1DE0010A1BE0170A0FE0010A0DE03D
:1007A000070A0BE0010A09E0030A07E0010A05E075
:1007B0000F0A03E0010A01E01200030EED6F080EBC
:1007C00007D00101A6A102D015EF01F000010A0E29
:1007D000F56F120020EC0BF0010EB7EC0AF00EE002
:1007E00075EC0BF0EDC0EFFF43EC0BF03B0EC0ECF3
:1007F0000AF004E1C5EC0AF0090EF56F020EE15CA7
:1008000002E2E16AE55233EF0BF025EC0CF0070E43
:10081000E126640EE9EC0BF0050EF3CFDBFF060ECC
:10082000F4CFDBFFD950050FE96E5AEC0CF002E172
:100830009FEF08F00001F351050A01E1E9D3010A35
:1008400001E1BED3070A01E14FD2010A01E1F5D16E
:10085000030A01E1A1D1010A02E092EF08F00001D0
:10086000060E666F686B696B070EDE6EDD6A0F0140
:1008700000A107D0ABEC0AF001E3DB2AB2EC0AF0EE
:10088000EF6A00A508D0ABEC0AF001E3DB2AB2EC7A
:100890000AF0020EEF6E00A708D0ABEC0AF001E3FD
:1008A000DB2AB2EC0AF0030EEF6E00A908D0ABEC25
:1008B0000AF001E3DB2AB2EC0AF0040EEF6E00ADA1
:1008C00006D0ABEC0AF001E3DB2A2DEC0CF000AF14
:1008D00006D0ABEC0AF001E3DB2A5FEC0CF001A1DF
:1008E00006D0ABEC0AF001E3DB2A31EC0CF001A3FB
:1008F00006D0ABEC0AF001E3DB2A63EC0CF001A5B7
:1009000006D0ABEC0AF001E3DB2A67EC0CF001A99E
:1009100006D0ABEC0AF001E3DB2A6BEC0CF001AB88
:1009200008D0ABEC0AF001E3DB2AB2EC0AF00D0EC2
:10093000EF6E01AD08D0ABEC0AF001E3DB2AB2ECBC
:100940000AF00E0EEF6EDECF10F0DDCF11F0070EC5
:10095000105E000E115A10C06AF0FC0E2517258398
:10096000ABEC0AF001E3DB2AB2EC0AF028CFEFFF90
:10097000ABEC0AF001E3DB2AB2EC0AF027CFEFFF81
:10098000ABEC0AF001E3DB2AB2EC0AF026CFEFFF72
:10099000ABEC0AF001E3DB2AB2EC0AF025CFEFFF63
:1009A000ABEC0AF001E3DB2AB2EC0AF0E9C1EFFF9D
:1009B000ABEC0AF001E3DB2AB2EC0AF0EAC1EFFF8C
:1009C000ABEC0AF001E3DB2AB2EC0AF0EBC1EFFF7B
:1009D000ABEC0AF001E3DB2AB2EC0AF0ECC1EFFF6A
:1009E00050EC0BF0ABEC0AF001E3DB2A67EC0CF007
:1009F000ABEC0AF001E3DB2AC2EC0BF001E3DB2AEB
:100A0000E1EC0BF0020EDB6A080E67EC0BF019E26A
:100A1000020EDBCFE6FF070EE552D880E754EA6A04
:100A2000040FE96E0F0EEA22EF50E66E75EC0BF044
:100A300072EC0CF0DF2A010E01E3DB2A020EDB2A46
:100A4000E3D7ABEC0AF001E3DB2A2DEC0CF0ABECC6
:100A50000AF001E3DB2AC2EC0BF001E3DB2ACEEC67
:100A60000BF001E3DB2A49EC0CF001E3DB2AB2ECEA
:100A70000AF01DCFEFFFABEC0AF001E3DB2AB2EC8A
:100A80000AF01ECFEFFFABEC0AF001E3DB2AB2EC79
:100A90000AF01FCFEFFFABEC0AF001E3DB2A2DECED
:100AA0000CF0ABEC0AF001E3DB2AC2EC0BF001E343
:100AB000DB2ACEEC0BF001E3DB2AC8EC0BF001E300
:100AC000DB2AB2EC0AF020CFEFFFABEC0AF001E337
:100AD000DB2AB2EC0AF021CFEFFFABEC0AF001E326
:100AE000DB2AB2EC0AF022CFEFFFABEC0AF001E315
:100AF000DB2AC8EC0BF001E3DB2AC2EC0BF001E3CC
:100B0000DB2ACEEC0BF001E3DB2A63EC0CF0B2EC59
:100B10000BF0ABEC0AF001E3DB2AB2EC0AF010C0F8
:100B2000EFFF0F012F516FEC0CF001E3DB2AC5EC56
:100B30000BF001E3DB2A5FEC0CF0ABEC0AF001E315
:100B4000DB2AC2EC0BF001E3DB2ACEEC0BF001E375
:100B5000DB2A6BEC0CF0ABEC0AF001E3DB2AB2EC25
:100B60000AF00FCFEFFFABEC0AF001E3DB2AB2ECA7
:100B70000AF00ECFEFFFABEC0AF001E3DB2AB2EC98
:100B80000AF00DCFEFFFABEC0AF001E3DB2AB2EC89
:100B90000AF00CCFEFFFBDD20001020E666F030E0C
:100BA000DE6EDD6A80EC0CF0D9EC0BF001E3DB2AA1
:100BB000C5EC0BF001E3DB2AC2EC0BF001E3DB2A0E
:100BC000CEEC0BF001E3DB2AE1EC0BF00F0112514C
:100BD000131107E1ABEC0AF001E3DB2A7DEC0CF02A
:100BE00006D07AEC0BF035EC0CF0E5EC0AF087EC73
:100BF0000BF0D9EC0BF001E3DB2AC5EC0BF001E3C1
:100C0000DB2AC2EC0BF001E3DB2ACEEC0BF001E3B4
:100C1000DB2A2DEC0CF00F011051111107E1ABECA8
:100C20000AF001E3DB2A7DEC0CF073D27AEC0BF0D6
:100C300000EC0CF0E5EC0AF06CD2030EDE6EDD6A1F
:100C400091EC0BF0D9EC0BF001E3DB2AC5EC0BF0D7
:100C500001E3DB2AC2EC0BF001E3DB2ACEEC0BF064
:100C600001E3DB2A5FEC0CF00F011451151107E1D1
:100C7000ABEC0AF001E3DB2A7DEC0CF006D07AEC59
:100C80000BF00AEC0CF0E5EC0AF00F0135B528D0BA
:100C90009BEC0BF0D9EC0BF001E3DB2AC5EC0BF07D
:100CA00001E3DB2AC2EC0BF001E3DB2ACEEC0BF014
:100CB00001E3DB2A31EC0CF00F011651171107E1AB
:100CC000ABEC0AF001E3DB2A7DEC0CF006D07AEC09
:100CD0000BF014EC0CF0E5EC0AF00001020E02D06F
:100CE0000001010E666F15D2030EDE6EDD6A020E84
:100CF000DB6A0F013551010B25E10451010B22E0A4
:100D0000E5EC0BF001E3DB2AC8EC0BF001E3DB2A96
:100D1000C2EC0BF001E3DB2ACBEC0BF001E3DB2AA6
:100D2000B2EC0AF0030EEF6E2351100B01E0010E3E
:100D30006FEC0CF001E3DB2AC5EC0BF001E3DB2ADE
:100D4000E1EC0BF004A534D134B11ED0E5EC0BF08E
:100D500001E3DB2AC8EC0BF001E3DB2AC2EC0BF069
:100D600001E3DB2ACBEC0BF001E3DB2A7DEC0CF09A
:100D70002351030B6FEC0CF001E3DB2AC5EC0BF005
:100D800001E3DB2AE1EC0BF034B320D0E5EC0BF00F
:100D900001E3DB2AC8EC0BF001E3DB2AC2EC0BF029
:100DA00001E3DB2ACBEC0BF001E3DB2AE1EC0BF0F7
:100DB0002351040B01E0010E6FEC0CF001E3DB2A80
:100DC000C5EC0BF001E3DB2AE1EC0BF034B521D0EC
:100DD000E5EC0BF001E3DB2AC8EC0BF001E3DB2AC6
:100DE000C2EC0BF001E3DB2ACBEC0BF001E3DB2AD6
:100DF000B9DB020EEF6E2351080B01E0010E6FEC20
:100E00000CF001E3DB2AC5EC0BF001E3DB2AE1EC9B
:100E10000BF033BF23D0E5EC0BF001E3DB2AC8EC89
:100E20000BF001E3DB2AC2EC0BF001E3DB2ACBEC95
:100E30000BF001E3DB2A31EC0CF02351600BE842AC
:100E4000E842E842E842E8426FEC0CF001E3DB2ABA
:100E5000C5EC0BF001E3DB2AE1EC0BF034B91ED05A
:100E6000E5EC0BF001E3DB2AC8EC0BF001E3DB2A35
:100E7000C2EC0BF001E3DB2ACBEC0BF001E3DB2A45
:100E800067EC0CF02451010B6FEC0CF001E3DB2A52
:100E9000C5EC0BF001E3DB2AE1EC0BF034B720D01A
:100EA000E5EC0BF001E3DB2AC8EC0BF001E3DB2AF5
:100EB000C2EC0BF001E3DB2ACBEC0BF001E3DB2A05
:100EC00063EC0CF02351800B01E0010E6FEC0CF091
:100ED00001E3DB2AC5EC0BF001E3DB2AE1EC0BF0CC
:100EE00034BB20D0E5EC0BF001E3DB2AC8EC0BF0BF
:100EF00001E3DB2AC2EC0BF001E3DB2ACBEC0BF0C5
:100F000001E3DB2A6BEC0CF02451020B01E0010E33
:100F10006FEC0CF001E3DB2AC5EC0BF001E3DB2AFC
:100F2000E1EC0BF034BD21D0E5EC0BF001E3DB2A62
:100F3000C8EC0BF001E3DB2AC2EC0BF001E3DB2A87
:100F4000CBEC0BF001E3DB2A0DDB0D0EEF6E245131
:100F5000040B01E0010E6FEC0CF001E3DB2AC5ECA1
:100F60000BF001E3DB2AE1EC0BF034BF21D0E5EC20
:100F70000BF001E3DB2AC8EC0BF001E3DB2AC2EC47
:100F80000BF001E3DB2ACBEC0BF001E3DB2AEADA1E
:100F90000F0EEF6E2451080B01E0010E6FEC0CF008
:100FA00001E3DB2AC5EC0BF001E3DB2AE1EC0BF0FB
:100FB000020EDBCF66F0D9CFE9FFDACFEAFFAED081
:100FC0000001010E666F686B040E696F0001F0513D
:100FD000F02B00016A6F070EDE6EDD6A0001F15131
:100FE000F2110FE0F12B000EF22378DB07E0F0ECBA
:100FF0000BF001E3DB2A72EC0CF0F7D7F12B000EBB
:10100000F223A9DA01E3DB2A7DEC0CF049DB81D085
:10101000010EF36E030EF3CFDBFF00010D0E676FC1
:10102000686B050E696F0B0EF36E040EF3CFDBFFDA
:101030000F011851191112E1020EDB6A040EDB5088
:1010400046DB22E2020EDB50060FEA6A640FE96E0D
:10105000000EEA22EF6A020EDB2AF0D74BDB18CF34
:1010600010F019CF11F0126A18CFE6FF19CFE6FF82
:1010700012C0E6FF6A0EE66E000EE66EC2EC2AF0C3
:10108000136E070EE15E1350110EDE6EDD6A0F0166
:1010900035B73CD01ACFF1F01BCFF2F0030EDBCF07
:1010A000E7FF1C51E726030EE7CFDBFF020EDB6AEA
:1010B0000F011C510CDB2AE211DBFF0805E10001E6
:1010C0005DDB030EDB061AD046DA01E3DB2AE1DB47
:1010D00001E3DB2A57DB01E3DB2AC3DB020EDB285B
:1010E0006FEC0CF001E3DB2A72EC0CF0000178DB12
:1010F00001E3DB2A37DAE552E750EF6EEFDA02E080
:101100003DDBFCD73BDB020EDB2AD2D7030EDBCF65
:1011100066F0D9CFE9FFDACFEAFF020EEE5E000EED
:10112000ED5A02D0DE6ADD6A89DBDECFE6FFDDCF75
:10113000E6FF390E25DA03E128DA070EF56F070E10
:10114000E15C02E2E16AE5528ED27ADA0C0E0FDA45
:1011500070E00C0EDCDBAFDAFE0EDB0444E1FC0ECB
:101160000F0125172583000E0315B9DB01E3DB2AE8
:1011700076DA000E0215B3DB01E3DB2A70DA170E14
:101180000115ADDB01E3DB2A6ADAE5D901E3DB2AED
:1011900000CFEFFF5EDA01E3DB2A28CFEFFF59DA59
:1011A00001E3DB2A27CFEFFF54DA01E3DB2A26CF66
:1011B000EFFF4FDA01E3DB2A25CFEFFF4ADA01E345
:1011C000DB2AE9C1EFFF45DA01E3DB2AEAC1EFFFE1
:1011D00040DA01E3DB2AEBC1EFFF3BDA01E3DB2A74
:1011E000ECC1EFFF10D0FE0EDB5008E17EDA030EFB
:1011F000E926000EEA22010EEF6E05D00C0EE66E17
:10120000E66AE66858DA1ADB0C0EE66EE66A130E3A
:10121000B7D90FE1FE0EDB50020804E0FE0EE66EC9
:10122000010E03D0880EE66E130EE66EBADA010EDA
:1012300001D0000E106E020EE15C02E2E16AE5529E
:1012400040D203DB030EE126460EC3DADE52F3CFB3
:10125000DEFFF4CFDDFFDD52D950010FE96E2ADB4E
:1012600001E18AD0010EDF6E17DB01E3DB2AEEC05D
:10127000EFFF0001EE51090A63E0010A5BE00F0A8B
:1012800055E0010A4FE0030A3CE0010A2AE0070AA0
:1012900066E0010A64E0030A1DE0010A60E1AFD9DB
:1012A00001E3DB2AEF6AABD901E3DB2AEF6A0F0126
:1012B00035A504D0A4D906E3DB2A04D0A0D901E3E4
:1012C000DB2A030EEF6E9BD901E3DB2AF30EEF6EF0
:1012D000040E05D0CADA96D913DB65D91050DF2683
:1012E0003ED08DD901E3DB2A1DCFEFFF88D901E382
:1012F000DB2A1ECFEFFF83D901E3DB2A1FCFEFFFED
:101300000FD07DD901E3DB2A20CFEFFF78D901E3AD
:10131000DB2A21CFEFFF73D901E3DB2A22CFEFFFD6
:10132000030E1CD06DDA6ED9F2D907D073DA6AD900
:10133000F8D903D079DA66D9FED935D910500ED054
:1013400011DA5DD901E3DB2A10C0EFFF0F012F5145
:10135000E66E55D901E3DB2A82D9020EDF26980E0C
:10136000E66E010EE66EDFCFE6FFE66A280E72DA61
:1013700083DA02E10101A297030EE15C02E2E16A75
:10138000E55271D15DD9030EC2DAA40EE66E010EEC
:10139000E66E89DA0F01FA0E315D010E325905E26F
:1013A00031CFA4F132CFA5F105D00101FA0EA46F1F
:1013B000010EA56F0001EF6B000ED9D811E0FB0EF6
:1013C000E66E000EE66E3ADA380EDAD809E1B80EAB
:1013D000E66E0B0EE66EE5D90001010EF56F01D049
:1013E000000E106E020EE15C02E2E16AE55269D184
:1013F0000101A251080B0CE0100E0001E76EF51977
:10140000E8AE02D0E73402D0E750F55D01E319DF22
:101410006CDA2AEC1BF0E552E5520001F551190A8D
:1014200001E198D0010A01E18FD00F0A01E183D0D8
:10143000010A01E18FD0030A01E176D0010A72E0CE
:10144000070A6BE0010A67E0030A60E0010A56E060
:101450001F0A4FE0010A46E0030A3FE0010A3BE0B1
:10146000070A36E0010A2EE0030A29E0010A25E016
:101470000F0A20E0010A1CE0030A17E0010A52E00B
:10148000070A10E0010A27E0030A09E0010A01E067
:10149000120016EC2CF000095DE0C2EF09F07CD8D8
:1014A00059E044D079D856E041D076D853E03ED0C8
:1014B00005EF04F071D84EE039D0EAEF03F06CD8B4
:1014C00049E034D0E66A56D945E000010B0E40D021
:1014D00063D840E004D0B7EF00F05ED83BE00001F5
:1014E0000A0E36D0010EE66E45D934E000010F0E2B
:1014F0002FD052D82FE000010E0E2AD00F0135A3B5
:1015000003D00001140E24D028EF00F045D822E0CB
:101510000001100E1DD042EF00F03ED81BE000018C
:10152000120E16D05BEF00F037D814E040EC2CF030
:101530000001F56B12000101A295020EE66E1AD9A8
:1015400009E00001180E04D027D804E00001170EAE
:10155000F56F12001200DFCFE9FFDF2A010EDBCFAB
:10156000EAFF1200640EE926000EEA22120031D9C9
:10157000F3CFDEFFF4CFDDFFD9CFE9FF5AEF0CF058
:10158000C6D9010EE66E3CEF0CF0880EE66E130E27
:10159000E66E07D900011200A8D985EC1BF0E552D0
:1015A000E5520009120015C0E6FF18EC2BF0E552D9
:1015B000E552E55205C010F006C011F007C012F068
:1015C000102A000E11221222120012C0E6FFDECFF6
:1015D00013F0DDCF14F0640E1326000E142213C096
:1015E000E6FF14C0E6FFC2EC2AF0156E070EE15EBE
:1015F0001550040EDB50DE26000EDD221200010E17
:101600004CEF0CF012C0E6FF010EDBCFE6FF020E3E
:10161000DBCFE6FFFFEC2AF0136E050EE15E135000
:101620001200E76EE6D8E750E926000EEA22120023
:10163000E66EA9EC10F0106E070EE15E105012007D
:1016400004D9020EE12612009AC1E9FF9BC1EAFF0C
:101650001200DFCFE9FFDF2ADBCFEAFF1200E552FD
:10166000E750EF6E1200E16EE552E7CFD9FF1200AE
:10167000EA6A9A25E96E9B51EA221200E66AE66A56
:10168000E66A1EEF0CF0DAD8010EE66EE66A12008A
:101690002CD926EC1BF0E552E5520001EF6B12004D
:1016A000DECF10F0DDCF11F0040E105E000E115AE7
:1016B00010C067F01200DECFE6FFDDCFE6FF53EF8C
:1016C0000CF0E16E1050E552E7CFD9FF1200F36E37
:1016D000020EDBCFF4FFF350F45C1200F1C0F6FF12
:1016E000F2C0F7FF0800F5501200DECFE9FFDDCFB2
:1016F000EAFF1200040EDBCFE6FFE66A120011C01B
:10170000E6FF12C0E6FF13C0E6FF1EEF0CF010CF9D
:1017100013F011CF14F0156A10CFE6FF11CFE6FFDA
:10172000120014CF13F015CF14F0156A14CFE6FF92
:1017300015CFE6FF120016CF13F017CF14F0156A7D
:1017400016CFE6FF17CFE6FF120012CFE6FF13CF4A
:10175000E6FF1200E66EA9EC10F0146E070EE15ED3
:101760001450120030CF10F0116AFF0E1016000E48
:1017700011161200EADCE55200091200F12B000EEE
:10178000F2231200BAD8ABEF0AF0ACD8ABEF0AF0F4
:10179000E9DE050EAFD0E6DE030EACD0E3DE020ECE
:1017A000A9D0A3D8E2EC1AF0E552E552E552E55291
:1017B0001200F9DE040E10C0DBFFDB50030F6FEFE9
:1017C0000CF0D0DE010EEF6E1200020EDB2AABEF42
:1017D0000AF09DD898EC17F0E552E552E552120058
:1017E000F1C0F6FFF2C0F7FFC9DF0800F5506FEF58
:1017F0000CF0050EDBCFE9FF060EDBCFEAFF12008F
:1018000010CF10F011CF11F0126A10CFE6FF11CFF8
:10181000E6FF120014CF10F015CF11F0126A14CFAA
:10182000E6FF15CFE6FF120016CF10F017CF11F02C
:10183000126A16CFE6FF17CFE6FF1200000EE66E23
:10184000E66A120001DFEF501200D9CFE6FFE1CFC8
:10185000D9FF12005CD8E66A120084DE060EEF6E35
:10186000120080DE080EEF6E120012CF10F013CFC0
:1018700011F0126AA5EF0BF05DEC18F0106E080E77
:10188000E15E105000091200E66EF8DE0E0E18EF51
:101890000BF068DE040E2ED0DBCFE9FFDB2A020E50
:1018A000DBCFEAFF1200E5EC2AF0106E050EE15ED8
:1018B00010501200DACFEAFFEE50ED10120052DEA7
:1018C000070EEF6E12004EDE090EEF6E12004ADEBA
:1018D0000A0EEF6E120046DE0C0EEF6E1200E66E80
:1018E000ABEF0AF03FDE2FEF0BF0F60EE66E000EC8
:1018F000E66E1200EF6EABEF0AF034DEEF6A120014
:1019000012CF13F013CF14F0156AA5EF0BF0E66EAB
:06191000E66AE66A12001F
:0A19160003018651855D03E386514D
:10192000855D1200850E8525126E136A000E132246
:101930008651146E156A1450125C106E15501358AF
:101940001050120000EC17F0E652FE0EDB500301BF
:101950008625DF6EDF50106E116AD890115004E6B4
:10196000850E105C000E115802E3850EDF5EDF501D
:10197000EA6A000FE96E030EEA22EF50E552F7EF34
:1019800016F000EC17F0FE0EDB500301862786519F
:10199000106E116AD890115004E6850E105C000E8E
:1019A000115802E3850E865FF7EF16F0BEC1E9FF1E
:1019B000BFC1EAFF090EE2EC16F0010B0AE00101DB
:1019C000CB51100B06E1BA51010B03E1BB51010BE6
:1019D00001E0000C010C00EC17F0E65205EC17F0EA
:1019E0000E0E5BEC17F0AE0EE66E010EE66E0CEC22
:1019F00017F00101CB6B0301856B866B000EE66E61
:101A00000F0EE66E36EC18F0E552E552DF6EDF5051
:101A10000DE0040EDF5CF40EE66E010E5BEC17F0D9
:101A200018EC21F0E552E552E552E552000EE55280
:101A3000F7EF16F00F01010E006F016B026B036BE5
:101A4000050E046F020E056F066B076B086B096BC2
:101A50000A6B0B6B0C6B0D6B0E6B0F6B5F0E106FCD
:101A60004E0E116F410E126F4E0E136F2C0E146F2F
:101A70004E0E156F2B0E166F4E0E176F200E186F31
:101A80004E0E196F010E1C6FFD0E1A6F4D0E1B6F5F
:101A9000030E1D6F050E1E6F1F6B010E206F216B55
:101AA000226B710E236F246B020E256F266B276B42
:101AB000286B296B2A6BF40E2B6F010E2C6F200EF6
:101AC0002D6F2E6B880E2F6F306B316F326B336B37
:101AD000600E346F040E356F366B12001CDF106E13
:101AE000080E105C1EE3E66A2DDFE5525A0806E197
:101AF000010EFBEC16F0A50801E1010C0301865173
:101B0000855D0FE0E66A1EDFE5525A0805E1010E29
:101B1000FBEC16F0A50805E0010EE66E32DFE5529B
:101B2000EDD7000C00EC17F0070EE12605EC17F0DE
:101B30000101CBA122D0C30EE96E010EEA6EC7519E
:101B4000EE24106EC851EE20116EC951EE20126EB7
:101B5000CA51EE20136E13EC17F012C0E6FFE66ECA
:101B6000CAEC16F01050045C11500558125006587B
:101B70001350075802E30101CB910101BBA10DD025
:101B8000D0EC29F00101AE51045CAF510558B051C1
:101B90000658B151075801E3BB91CBB1CDD2BAA5DC
:101BA00012D0000E2BEC17F001E1C6D2000EE66E4B
:101BB000E66AE66EE66A4F0EB5EC16F001E0BCD2BE
:101BC0000101BA95B9D2BAA736D0080E2BEC17F09E
:101BD00001E1B2D276EC16F001E3DB2A33EC17F028
:101BE00001E3DB2A33EC17F001E3DB2A33EC17F0D7
:101BF00001E3DB2A33EC17F001E3DB2A33EC17F0C7
:101C000001E3DB2A33EC17F001E3DB2A080E28ECB2
:101C100017F001E3DB2A040EEF6E000EE66EE66AB3
:101C2000080EE66EE66A490EB5EC16F001E084D2C5
:101C30000101BA9781D2BAA349D0E5EC16F018ECAD
:101C40002BF0E552E552E5520528E76E030EE7CF8B
:101C5000DBFFDB50030F2BEC17F001E16DD276ECCC
:101C600016F001E3DB2AEF6A0101CBA707D076EC7F
:101C700016F001E3DB2A010EEF6E05D076EC16F0CC
:101C800001E3DB2AEF6E76EC16F001E3DB2AEF6A64
:101C9000030EDBCFE6FFE66AE5EC16F0F0EC16F09B
:101CA000C2EC2AF0136E070EE15E1350000EE66ED2
:101CB000E66A030EDB50030FE66EE66A640EB5ECCF
:101CC00016F001E039D20101BA935CD0BAA919D05B
:101CD000020E2BEC17F001E12FD2A6EC16F0090E44
:101CE00043EC17F0EF80B9EC16F03F0EEF6EB20E3A
:101CF000E66E010EADEC16F001E01ED20101BA99BC
:101D000041D0BAAB13D0020E2BEC17F001E114D284
:101D1000B9EC16F0400EEF6EB40EE66E010EADECAF
:101D200016F001E009D20101BA9B2CD0BAAD14D053
:101D3000020E2BEC17F001E1FFD176EC16F001E377
:101D4000DB2A33EC17F001E3DB2A47EC17F001E064
:101D5000F3D10101BA9D16D0BAAF16D0020E2BEC0A
:101D600017F001E1E9D176EC16F001E3DB2A040E6D
:101D700028EC17F001E3DB2A47EC17F001E0DCD197
:101D80000101BA9FBA81D8D1A6EC16F0090EE2EC97
:101D900016F0020B4AE00ADE000901E1CDD10A0E7D
:101DA0002BEC17F001E1C8D1A6EC16F0090E43ECBC
:101DB00017F0EF92A6EC16F0030E43EC17F0EF6A63
:101DC000A6EC16F0040E43EC17F0EF6A0A0E5BEC7B
:101DD00017F0F0EC16F00CEC17F018EC17F001E32C
:101DE000DB2A21EC17F001E3DB2A5FEC17F001E3BB
:101DF000DB2A69EC17F001E3DB2A6CEC17F001E356
:101E0000DB2A63EC17F001E3DB2AE552E750EF6EC3
:101E1000B80EE66E010EE66E0A0EE66EE66A420E39
:101E2000B5EC16F001E088D146D1C0DD000901E132
:101E300083D154DE000901E17FD1E66AFBEC17F0A3
:101E4000E552F3CF10F0F4CF11F04EEC17F079EC2F
:101E500016F001E171D1010EF36E040EF3CFDBFF3A
:101E6000050EDB6A060EDB6A31CF10F032CF11F0BF
:101E70004EEC17F0E66AF0EC16F0E5EC2AF0126E84
:101E8000050EE15E12502ADE000901E1FED0040ECB
:101E9000DB5001E1FAD0020EFBEC16F0DF6EDF50F2
:101EA000090A01E1DDD0010A01E1E6D00F0A01E1F2
:101EB0009AD0010A01E1E0D0030A63E0010A01E1DE
:101EC000DBD0070A3FE0010A38E0030A01E1D4D081
:101ED000010A01E0D1D08DEC16F001E287D018ECB8
:101EE00017F001E3DB2A21EC17F001E3DB2A5FECBA
:101EF00017F001E3DB2A69EC17F001E3DB2A6CEC55
:101F000017F001E3DB2A010EEF6E54EC17F001E34A
:101F1000DB2A33EC17F001E3DB2A030E28EC17F081
:101F200001E3DB2A050E28EC17F001E3DB2A33EC92
:101F300017F001E3DB2AEF6E89D0030EFBEC16F0FD
:101F40008C6E9AD08DEC16F051E318EC17F001E38B
:101F5000DB2A21EC17F001E3DB2A5FEC17F001E349
:101F6000DB2A69EC17F001E3DB2A6CEC17F001E3E4
:101F7000DB2A63EC17F001E3DB2AD9EC16F0040E40
:101F800062D08DEC16F032E318EC17F001E3DB2A97
:101F900021EC17F001E3DB2A5FEC17F001E3DB2A09
:101FA00069EC17F001E3DB2A6CEC17F001E3DB2AA4
:101FB000060EEF6EA6EC16F0060E2FEC17F001E3FE
:101FC000DB2A3EEC17F0050E2FEC17F001E3DB2ABD
:101FD0003EEC17F0070E2FEC17F001E3DB2AD9ECEB
:101FE00016F0020E30D08DEC16F003E2040EDB6A20
:101FF00043D018EC17F001E3DB2A21EC17F001E3E2
:10200000DB2A5FEC17F001E3DB2A69EC17F001E350
:10201000DB2A6CEC17F001E3DB2A080EEF6EA6EC6E
:1020200016F0EE52EF50E66E76EC16F001E3DB2A86
:102030003EEC17F0EF50E66E76EC16F001E3DB2A8B
:10204000D9EC16F0030EEE26000EED22D950050F46
:10205000E96EDACFEAFF0A0EEE26000EED220CD072
:10206000030EFBEC16F0E66EA6EC16F0080E43EC41
:1020700017F0E552E750EF6E040EDB5001E103D795
:10208000080EE66E7EDCE552FED6D950050FE96EED
:10209000DACFEAFFEE50ED104FE0B80EE66E010E1B
:1020A000E66E050EDBCFE6FF060EDBCFE6FF420E47
:1020B000B5EC16F041E10101BA81BB8191C210F08B
:1020C00092C211F093C212F094C213F0F40E096E92
:1020D000010E0A6E0B6A0C6A91C204F092C205F0FE
:1020E00093C206F094C207F00BEC2EF000C010F083
:1020F00001C011F002C012F003C013F000C0E6FFEF
:1021000001C0E6FF02C0E6FF03C0E6FFCAEC16F01E
:102110000450000110240101AE6F05500001112090
:102120000101AF6F0650000112200101B06F07508E
:10213000000113200101B16F070EE15C02E2E16AC8
:10214000E552E16EF7EF16F0D9CFE6FF010EF7EF9B
:1021500016F0D9CFE6FFE1CFD9FF070EE126FE0E3C
:10216000DB501C0A02E15DEF16F0070A02E153EFB3
:1021700016F0080A02E150EF16F0010A01E1D5D28B
:10218000030A01E19CD2010A01E114D21F0A01E114
:10219000F7D1010A01E1BDD1030A01E1ADD1010A84
:1021A00001E15DD1060A01E13FD1030A01E121D13C
:1021B000010A01E100D10F0A01E1E6D0010A01E1C3
:1021C000CDD0030A01E1B4D0010A01E19BD0070A96
:1021D00001E185D0010A3DE0030A2BE0010A02E09B
:1021E00067EF16F08450010B17E08150200B14E1CB
:1021F000F80EDBCF10F0F90EDBCF11F0FA0EDBCFCB
:1022000012F0FB0EDBCF13F0105011101210131050
:1022100003E1948E8B8C949C8450010B03E08150DD
:10222000200B02E0000E01D0010E6AEF16F068EFFD
:1022300016F0CD0EE66E4D0EE66ECDEC30F0E552AA
:10224000E552F80EDB50E8B08B80E8A08B9068EF89
:1022500016F0BEC1E9FFBFC1EAFF0A0EE926000E73
:10226000EA22EF5004E0000E6AEF16F036D0B50E09
:10227000E66E4D0EE66ECDEC30F0E552E552880E7E
:10228000E66E2ECFE6FF5BEC2DF0E552E552310E07
:10229000E66EE66A2ECFE6FF62EC2FF0E552E552DD
:1022A000E552010EE66E2ECFE6FF43EC2EF0E5522E
:1022B000E5520A0EE66EE66AE66AE66A98EC28F0EF
:1022C000E552E552E552E552BEC1E9FFBFC1EAFF62
:1022D0000A0EE926000EEA22EF8468EF16F09B0E44
:1022E000E66E4D0EE66ECDEC30F0E552E552BEC125
:1022F000E9FFBFC1EAFF0A0EE926000EEA22EF94C9
:1023000068EF16F0760EE66E4D0EE66ECDEC30F010
:10231000E552E552640EE66EE66A050EE66EE66A82
:1023200018EC21F0E552E552E552E55268EF16F05F
:102330005C0EE66E4D0EE66ECDEC30F0E552E552E9
:10234000640EE66EE66A050EE66EE66A18EC21F0AB
:10235000E552E552E552E55268EF16F0440EE66E9E
:102360004D0EE66ECDEC30F0E552E552640EE66EB1
:10237000E66A050EE66EE66A18EC21F0E552E552D3
:10238000E552E55268EF16F02A0EE66E4D0EE66E47
:10239000CDEC30F0E552E5521E0EE66EE66A020E16
:1023A000E66E050EE66E18EC21F0E552E552E552B8
:1023B000E55268EF16F0100EE66E4D0EE66ECDECAF
:1023C00030F0E552E552948E948C8C6A0301856B53
:1023D0000301866B0101CB6BBEC1E9FFBFC1EAFF00
:1023E000090EE926000EEA22EF6A1AEC0DF068EFFA
:1023F00016F0F10EE66E4C0EE66ECDEC30F0E552C6
:10240000E5520101CB83640EE66EE66A050EE66EC8
:10241000E66A18EC21F0E552E552E552E552000E6D
:102420006AEF16F068EF16F0D10EE66E4C0EE66E0F
:10243000CDEC30F0E552E5520101CB83640EE66E3F
:10244000E66A050EE66EE66A18EC21F0E552E55202
:10245000E552E552000E6AEF16F068EF16F0B10E85
:10246000E66E4C0EE66ECDEC30F0E552E552FC0E19
:10247000DBCFE9FFFD0EDBCFEAFFEF503CE1010EC1
:10248000E76EFC0EDBCFE9FFFD0EDBCFEAFFE75086
:10249000E926000EEA22060EE926000EEA22EF5097
:1024A000200B11E10101CB83640EE66EE66A050E96
:1024B000E66EE66A18EC21F0E552E552E552E55287
:1024C000000E6AEF16F00101CB97010EE76EFC0ECD
:1024D000DBCFE9FFFD0EDBCFEAFFE750E926000E78
:1024E000EA22040EE926000EEA220101CB95EF5004
:1024F000010B01E0CB85ECD3FC0EDBCFE9FFFD0E39
:10250000DBCFEAFF040EE926000EEA22010EEF6E91
:10251000DFD3910EE66E4C0EE66ECDEC30F0E55258
:10252000E552D950F80FE96EFF0EDA20EA6E050E7B
:10253000EE1805E1EE5003E1EE5001E1EE5001E14D
:1025400010D0D950F80FE96EFF0EDA20EA6E060EB1
:10255000EE1805E1EE5003E1EE5001E1EE5001E12D
:1025600000D00101CB83640EE66EE66A050EE66ECE
:10257000E66A18EC21F0E552E552E552E552A8D39F
:10258000780EE66E4C0EE66ECDEC30F0E552E5527C
:102590000101CBB30CD0640EE66EE66A050EE66E62
:1025A000E66A18EC21F0E552E552E552E5520101E8
:1025B000CB938ED3480EE66E4C0EE66ECDEC30F02B
:1025C000E552E552F80EDBCFE6FFF90EDBCFE6FF72
:1025D000CFEC30F0E552E552450EE66E4C0EE66E5D
:1025E000CDEC30F0E552E552F80EDBCF05F0F90EF8
:1025F000DBCF06F0FA0EDBCF07F0FB0EDBCF08F0E7
:102600000D0E051805E1065003E1075001E10850E1
:1026100047E00C0E051805E1065003E1075001E103
:1026200008503DE00B0E051805E1065003E1075088
:1026300001E1085033E00A0E051805E1065003E1F8
:10264000075001E1085029E0090E051805E1065080
:1026500003E1075001E108501FE0120E051805E1E3
:10266000065003E1075001E1085015E0110E05186E
:1026700005E1065003E1075001E108500BE0100EA0
:10268000051805E1065003E1075001E1085001E09B
:1026900008D008D007D006D005D004D003D002D08F
:1026A00001D000D0640EE66EE66A050EE66EE66ABC
:1026B00018EC21F0E552E552E552E55209D32E0E11
:1026C000E66E4C0EE66ECDEC30F0E552E552FC0EB7
:1026D000DBCFBCF1FD0EDBCFBDF1BCC1E9FFBDC15D
:1026E000EAFF020EE926000EEA22EF50010B10E08D
:1026F0001E0EE66EE66A020EE66E040EE66E18EC3C
:1027000021F0E552E552E552E5520101BA850CD0BF
:10271000640EE66EE66A050EE66EE66A18EC21F0D7
:10272000E552E552E552E552D3D2FC0EDBCFE9FF8C
:10273000FD0EDBCFEAFFEF5001E0B0D2FC0EDBCFA5
:10274000E9FFFD0EDBCFEAFFEE52EECF10F0EFCF48
:1027500011F0510E101801E1115001E17CD24A0E26
:10276000101801E1115001E19CD1430E101801E154
:10277000115001E10AD1400E101801E1115001E1A0
:10278000E5D03F0E101801E1115001E18FD0020E8B
:10279000101801E1115001E07FD2FC0EDBCFE9FF00
:1027A000FD0EDBCFEAFF050EE926000EEA22EE5011
:1027B000EFCFEAFFE96E010EE926000EEA22EF50A4
:1027C000640A5AE02D0A4FE0060A4DE00D0A01E0C6
:1027D0006CD00101BB91FC0EDBCFE9FFFD0EDBCF1E
:1027E000EAFF050EE926000EEA22EE50EFCFEAFFDF
:1027F000E96EEF50170836E1FC0EDBCFE9FFFD0E66
:10280000DBCFEAFF050EE926000EEA22EE50EFCFFD
:10281000EAFFE96E020EE926000EEA22010EEFCF72
:10282000DBFFFC0EDBCFE9FFFD0EDBCFEAFF050E81
:10283000E926000EEA22EE50EFCFEAFFE96E030E22
:10284000E926000EEA22EFCFDFFFDECF10F0DDCF6A
:1028500011F00101C151101802E1C251111802E139
:102860000101CB8922D001010101CB510101BA93B1
:10287000040B01E0BA8319D00101CBB715D0FC0ECF
:10288000DBCFE9FFFD0EDBCFEAFF050EE926000EE8
:10289000EA22EE50EFCFEAFFE96EEF50040804E1C0
:1028A0000101CB870101BA8300D0F7D1FC0EDBCF49
:1028B000E9FFFD0EDBCFEAFF050EE926000EEA2256
:1028C000EE50EFCFEAFFE96EEFCF10F010C011F03D
:1028D000106AFC0EDBCFE9FFFD0EDBCFEAFF050E31
:1028E000E926000EEA22EE50EFCFEAFFE96E010E74
:1028F000E926000EEA22EF5001011010C16F11C04D
:10290000C2F1FC0EDBCFE9FFFD0EDBCFEAFF050EC7
:10291000E926000EEA22EE50EFCFEAFFE96E020E42
:10292000E926000EEA22EFCFC0F10101BA89FC0EC0
:10293000DBCFE9FFFD0EDBCFEAFF030EE926000E39
:10294000EA22EECFB2F1EDCFB3F1A7D18C6A030149
:10295000856B0301866BBEC1E9FFBFC1EAFF090EAB
:10296000E926000EEA22EF900101BA8BFC0EDBCFC4
:10297000E9FFFD0EDBCFEAFF030EE926000EEA2297
:10298000EECFB4F1EDCFB5F188D1FC0EDBCFE9FF8E
:10299000FD0EDBCFEAFF030EE926000EEA22EECFA2
:1029A000B6F1EDCFB7F1BEC1E9FFBFC1EAFF090E35
:1029B000E926000EEA22EF50010B03E10101BA8F74
:1029C0006FD0FC0EDBCFE9FFFD0EDBCFEAFF050E7B
:1029D000E926000EEA22030EEECFDBFF040EEDCF58
:1029E000DBFFD950030FE96EDACFEAFF020EEE26C5
:1029F000000EED22020EF36E020EF3CFDBFF020E8D
:102A0000DBCF10F0FC0EDBCFE9FFFD0EDBCFEAFFE2
:102A1000070EE926000EEA22EECF11F0EFCF12F0FA
:102A20001150105C000E125439E203018551106EF2
:102A3000116A840E101801E1115003E1030186515F
:102A400029E0030186050301855D24E0030EDBCF49
:102A5000E9FF040EDBCFEAFFEF50E66E030185517C
:102A6000852BEA6A000FE96E030EEA22E552E75071
:102A7000EF6E03018551106E116A850E101801E189
:102A8000115002E10301856B030EDB2A040E01E302
:102A9000DB2A01D00000020EDB2AB1D70101BA8D7A
:102AA000FCD0FC0EDBCFE9FFFD0EDBCFEAFF050E0D
:102AB000E926000EEA22EE50EFCFEAFFE96EEF5072
:102AC000020801E07BD00101CB81FC0EDBCFE9FFE6
:102AD000FD0EDBCFEAFF050EE926000EEA22EE50DE
:102AE000EFCFEAFFE96E010EE926000EEA22EFCFF2
:102AF000C6F1FC0EDBCFE9FFFD0EDBCFEAFF050ED2
:102B0000E926000EEA22EE50EFCFEAFFE96E020E50
:102B1000E926000EEA22EFCFC5F1FC0EDBCFE9FF7C
:102B2000FD0EDBCFEAFF050EE926000EEA22EE508D
:102B3000EFCFEAFFE96E030EE926000EEA22EFCF9F
:102B4000C4F1FC0EDBCFE9FFFD0EDBCFEAFF050E83
:102B5000E926000EEA22EE50EFCFEAFFE96E040EFE
:102B6000E926000EEA22EFCFC3F1C30EE96E010E93
:102B7000EA6E91C209F092C20AF093C20BF094C2BD
:102B80000CF0EECF04F0EECF05F0EECF06F0EFCF75
:102B900007F00BEC2EF003C0EDFF02C0EDFF01C00B
:102BA000EDFF00C0EFFFD0EC29F004C0C7F105C075
:102BB000C8F106C0C9F107C0CAF14CD0FC0EDBCF8A
:102BC000E9FFFD0EDBCFEAFF050EE926000EEA2243
:102BD000EE50EFCFEAFFE96EEF500B083BE1FC0E41
:102BE000DBCFE9FFFD0EDBCFEAFF050EE926000E85
:102BF000EA22EE50EFCFEAFFE96E010EE926000E61
:102C0000EA22060EEFCFDBFFFC0EDBCFE9FFFD0E65
:102C1000DBCFEAFF050EE926000EEA22EE50EFCFE9
:102C2000EAFFE96E020EE926000EEA22050EEFCF5A
:102C3000DBFF050EDBCF10F0060EDBCF11F001013C
:102C4000C151101802E1C251111804E10101CB99E0
:102C50000101CB8B22D0FC0EDBCFE9FFFD0EDBCFD9
:102C6000EAFF050EE926000EEA22EE50EFCFEAFF5A
:102C7000E96E070EE926000EEA22EF50080B03E08A
:102C80000101BA8708D001010101CB510101BA93BA
:102C9000040B01E0BA8301D000D001D000D018D0DD
:102CA0000101BA9115D00B0EE66E4C0EE66ECDEC1E
:102CB00030F0E552E55200000BD0E00EE66E4B0E10
:102CC000E66ECDEC30F0E552E552000001D000D0C8
:102CD000010E00D0106E070EE15C02E2E16AE552DF
:102CE000E16E1050E552E7CFD9FF1200010E54EF0C
:102CF00017F0E66A98EC17F0E552E552E552DE521D
:102D0000F3CFDEFFF4CFDDFFDD52D950010FE96EC6
:102D1000DACFEAFFEE50ED1012000A0EE76E050E54
:102D2000DBCF10F0060EDBCF11F0E7501026000EBF
:102D3000112231CF12F032CF13F0040E125E000ECA
:102D4000135A1050125C115013581200FD0EDBCFB5
:102D5000E9FFFE0EDBCFEAFF1200E66E020EE66E22
:102D6000E66A410EA8D8E66A81D0A5D8010EE66EC3
:102D70007DD0010EDBCFE9FF020EDBCFEAFFEF6A69
:102D8000010EE76EDBCFE9FF020EDBCFEAFFE75073
:102D900043EF17F0D0EC29F0E552E7CF13F0E552FE
:102DA000E7CF12F0E552E7CF11F0E552E7CF10F090
:102DB0001200E552E750EF6ED950010FE96EDACFFD
:102DC000EAFF120060D8EF501200E70E106E4D0EB1
:102DD000116E126A10C0E6FFE66E12C0E6FF120026
:102DE000010EDBCFE6FF020EDBCFE6FF1200E5525D
:102DF000E7CFD9FF1200E66EA2EC0CF0E55212000C
:102E0000D9CFE6FFE1CFD9FF1200FD0EDBCFBEF137
:102E1000FE0EDBCFBFF11200E5EC2AF0106E050EBE
:102E2000E15E1050120010C0E6FF11C0E6FF120074
:102E3000C2C110F0116AFF0E1016000E111676EFC7
:102E400016F010C0EFFF0101C151E66E76EF16F0EB
:102E5000EF6E76EF16F0E66EE66A79EF16F0B2DF07
:102E6000E66E76EF16F0EF6A76EF16F05DEC18F08E
:102E7000106E080EE15E105000091200E552E75096
:102E8000EF6EA6EF16F0E926000EEA221200430EBE
:102E9000EF6EB60EE66E010EADEF16F0040E105E8C
:102EA000000E115A13EF17F0DBCFE9FFDB2A020EF9
:102EB000DBCFEAFF1200E66EE66AE66A1200E55230
:102EC000E75028EF17F0040EEF6E40DF020E2FEFF1
:0E2ED00017F05A0E28EF17F0A50E28EF17F096
:022EDE0067EC9F
:102EE0001CF0030E58EC1CF0EFCFDFFF020E58EC85
:102EF0001CF0010EEFCFDBFF58EC1CF0020EEFCF01
:102F0000DBFF98EC1BF0030EEFCFDBFFDECF04F00E
:102F1000DECF05F0DECF06F0DDCF07F0DD52DD526B
:102F2000040EE15C02E2E16AE552E16EACEF1BF0F7
:102F3000A7EC1BF0030EE1260101A251010B1DE0DD
:102F400016EC2CF0000919E00101A2BF16D0A25125
:102F5000020B13E17AD80001E850100B0EE11AECD5
:102F60001CF010C0E6FF11C0E6FFFE0EC9EC1BF01E
:102F70001050F35C1150F45803E2F36AF46A34D051
:102F8000D950010FE96EDACFEAFF640EEE6E000E43
:102F9000ED6E020EDF6EFE0EDB50040806E1010E40
:102FA000DB2A020E01E3DB2ADF2A0101A2A503D0FE
:102FB000D7DB020EDF26DF50E76E1AEC1CF0E7507D
:102FC0001026000E1122FF0ED8801054000E11544E
:102FD00001E2C6DB010EDBCF10F0020EDBCF11F0F9
:102FE00010C0F3FF11C0F4FF030EE15C02E2E16ADE
:102FF000E552E16EB1D3ABDB020EE12631CFDEFF4D
:1030000032CFDDFFFDEC1BF001011050A45D11502B
:10301000A55904E2A4C1DEFFA5C1DDFFD3DBFE0E8E
:10302000DB50040804E1DF06010E01E2DB06A2B575
:10303000C9DBE3DB10C0F3FF11C0F4FF020EE15C5B
:1030400002E2E16AE552E16E87D381DBE652F2ECFF
:103050002BF0DF6E01019151921101E0DF86A2B3E6
:10306000DF8AA2BFDF8EDF50E55276D370DBFD0E24
:10307000DBCF10F0FE0EDBCF11F0000E101802E1D6
:103080000F0E111802E0130E15D04EEC1CF041EC9F
:103090001CF05CEC1CF00F01880E315D000E325903
:1030A00005E3880E2F5D000E305902E20F0E02D0AC
:1030B0000AEC2CF051D3A6EF03F067EC1CF00101F1
:1030C000A251010B04E016EC2CF0000902E1020E03
:1030D000BED00101A251020B08E1B7DF0001E850A8
:1030E000100B03E10101A2AF02D0030EB0D0A9DBA7
:1030F00010C0E6FF11C0E6FFFD0E4BDBF3CF12F070
:10310000F4CF13F01050F35C1150F45802E20F0E9C
:103110009ED0020EE76E95DBE75074DBFD0EDB50B0
:10312000040804E1DF2A010E01E3DB2A0101A2A564
:1031300004D0020EDE26000EDD22D950020FE96E09
:10314000DACFEAFF600EEE6E000EED6EE9DA01E313
:10315000DB2A550EEF6ED9CFE9FFDACFEAFFFF0E7B
:10316000D880EE54000EED540AE2DADA01E3DB2AED
:10317000EF6A43DBB0DB01E3DB2A10C0EFFF3DDB8E
:103180007ADB01E3DB2A10C0EFFFCADA01E3DB2AB6
:10319000FD0EDBCFEFFFDB50040809E1FB0EFC0E58
:1031A000DBCF11F098DB01E3DB2A10C0EFFFFF0E4D
:1031B000E76EFB0EDBCF10F0FC0EE7501016116A25
:1031C000AFDA01E3DB2A10C0EFFFA2A52BD0FE0E81
:1031D000DB501BE0A8C110F0116A4DDB01E3DB2AD4
:1031E00010C0EFFFA751E66E9BDA01E3DB2AE55240
:1031F000E750EF6EF0DA05E0BDDAA7C1EEFFA8C137
:10320000EDFFA72B000EA82312D05BDB64DB01E3EC
:10321000DB2A10C0EFFF55DB2EDB01E3DB2A10C0F9
:10322000EFFF05D0D8DA03E0A5DAEE6AED6A64D8DC
:103230000F0136510BE03651E66EE66AB5DAC2D9B7
:10324000E552E552E552E5520101A28F000E106EE3
:10325000040EE15C02E2E16AE552E16E10507CD2BC
:1032600038EF2CF0A1DAF6D9E552E5523AEC2CF021
:1032700014EC2CF000093CE00101A2B102D0D1EF26
:103280001AF016EC2CF0000936E00101A2AF08D0CC
:103290008BDA3BDAE552E552000902E00101A29F18
:1032A0000101A251020B22E1D3DA20E10101A2A91E
:1032B0000AD018EC2CF0000903E1ACDA130E61DA45
:1032C0000101A29913D09EA511D02BEC2CF000097E
:1032D00009E1090E73DAE66A950EE66E010EE66EF6
:1032E000120E4FDA36EC2CF001019E95C7EF1AF062
:1032F0000101A2B15ED912002ADA070EE126060EFC
:10330000DB6AD950040FE96EDACFEAFF610EEE6E88
:10331000000EED6E000161510CE162C013F0126A03
:1033200063511224106E000E1320116E030E6ADA20
:1033300003D06129DE6EDD6A020EDB6A030EDB6AF2
:10334000020EDBCF10F0030EDBCF11F0DECF12F058
:10335000DDCF13F01250105C1350115811E262DAF5
:1033600001E3DB2A060EDBCFE7FFEF50E726060E70
:10337000E7CFDBFF020EDB2A030EE2E3DB2AE0D716
:10338000060EDB1C010FE66E040EDBCFE9FF050E17
:10339000DBCFEAFFE552E750EF6E040EDBCF10F013
:1033A000050EDBCF11F0600E105E000E115A10C03A
:1033B000A1F10101A06BA283070EE15C02E2E16AC8
:1033C000E552E16EC9D1C3D9060EE12601019EB5D1
:1033D000CFD0050E915D000E925901E2CBD0030EC5
:1033E000F36E010EF3CFDBFF020EDB6A550E020116
:1033F000005D01E0B9D0015123E102C211F0106A71
:103400000351010110249C6F000E11209D6FA8D95B
:1034100004C295F1040E955D0AE105C211F0106A2F
:10342000020106511CDA070E9A6F020E24D0020127
:1034300005510101966F976B060E9A6F020E1BD015
:10344000015101019C6F9D6B02C295F1040E955DC7
:103450000AE103C211F0106A0201045100DA050EFC
:103460009A6F020E08D0020103510101966F976B0B
:10347000040E9A6F020E9B6F010EDB509C2500011B
:10348000106E020EDB5001019D210001116E010141
:103490001050915D1150925969E3010EDB509C254B
:1034A000936F020EDB509D21946F9DC110F09C51D3
:1034B0001024DF6E955110E1020E96190DE197511F
:1034C0000BE1040E9C1901E19D5105E0080E9C19C9
:1034D00003E19D5101E1A295A251040B13E0955126
:1034E00003E1965197110EE07FD9996F986B7CD9C3
:1034F000116AE850982711509923020E9C5F000E24
:103500009D5B02D0986B996B020E9C5F000E9D5BD9
:10351000040E955D03E19C07000E9D5B9551DF262F
:1035200099C110F098511024DF2697C110F0116A4C
:1035300096511024DF26040E9AC1DBFF050E9BC1B5
:10354000DBFF030EDB6ADBCF10F010509C5D000E3A
:103550009D5908E367D901E3DB2AEF50DF26030E0C
:10356000DB2AF1D7DF5004E036EC2CF0000E03D05C
:10357000010E01D0000E106E060EE15C02E2E16A5F
:10358000E552E16E1050E8D00101A293120060D91B
:1035900006E10101A251020B02E0F0EF2BF0EEEF89
:1035A0002BF07CD90101A76BA86BA281A28523EF28
:1035B0002CF025EC2CF065D971D97ED92BD9080EC9
:1035C000C1EF1BF0C4D8D0EC29F004C014F005C042
:1035D00015F006C016F007C017F0010EE76EFB0EDF
:1035E000DBCF18F0FC0EDBCF19F0E7501826000EE9
:1035F00019221A6A1B6A18C004F019C005F01AC013
:1036000006F01BC007F091C209F092C20AF093C203
:103610000BF094C20CF00BEC2EF014500024106E42
:1036200015500120116E16500220126E1750032003
:10363000136E7ED810C0EEFF11C0EEFF12C0EEFF79
:1036400013C0EEFF32D9010EEF6E86D080D82DD98F
:10365000EF6A82D03CD929D9EF0450E169D8EECF86
:1036600014F0EECF15F0EECF16F0EFCF17F014C038
:10367000E6FF15C0E6FF16C0E6FF17C0E6FFD0EC78
:1036800029F0E552E7CF17F0E552E7CF16F0E55203
:10369000E7CF15F0E552E7CF14F01450045C106E3C
:1036A00015500558116E16500658126E17500758CF
:1036B000136E10C0DFFF010E11C0DBFF020E12C03F
:1036C000DBFF030E13C0DBFFDECF05F0DECF06F01D
:1036D000DECF07F0DDCF08F0DD52DD520834000EFA
:1036E000081809E6D880000E0554000E0654000E96
:1036F0000754000E085402E2D8D8EF6A040EE15CC9
:1037000002E2E16AE552E16E27D021D8CED8EF502F
:1037100002E0000E01D0010E1FD00101A2891200AB
:10372000020EDBCFE9FFDB2A030EDBCFEAFF12003C
:10373000FD0EDBCFE9FFFE0EDBCFEAFF1200E66EE7
:10374000E5EC2AF0106E050EE15E10501200D9CFA4
:10375000E6FFE1CFD9FF1200E552E7CFD9FF120013
:10376000D950010FE96EDACFEAFF020EEE26000E05
:10377000ED221200F70EDBCFE9FFF80EDBCFEAFFF8
:103780001200E66EA9EC10F0106E070EE15E10500C
:103790001200DBCFE6FF2FDCE552E552E7CF11F058
:1037A000E552E7CF10F01200A90EE66E010EE66EAC
:1037B0001200040EE926000EEA221200E66EE66A06
:1037C000E66A1200D9CFE9FFDACFEAFF020EEE5E19
:1037D000000EED5A1200D950F70FE96EFF0EDA20F5
:1037E000EA6EEE50ED1012009AC1E9FF9BC1EAFFAC
:1037F0009A2B000E9B23EF501200DECF10F0DDCF8E
:1038000011F012001026000E112210C0DEFF11C0B0
:10381000DDFF1200E66AE66AE66AE66A000EE66E18
:10382000E66A1200040EDBCFE9FFDB2A050EDBCFD0
:10383000EAFF1200FC0EDBCF10F0FD0EDBCF11F023
:103840001200F90EDBCF10F0FA0EDBCF11F01200F0
:1038500025EC18F0106E0001E850100B1200010169
:103860001024966F000E1120976F1200E750E92682
:10387000000EEA221200FF0E1016000E111690EF35
:103880001BF0030E9BDFA40EE66E010E58DF040E44
:1038900095DFA00EE66E010E9FEF1BF00F0E8EDF80
:1038A000910EE66E010E9FEF1BF042DFD9EF1BF089
:1038B000E76E3EDF36EF1CF077DFC8DEE552E552FB
:1038C000120058DFEECF10F0EFCF11F012003FDF03
:1038D000040EE126120011C010F0116A3BEF1CF03B
:1038E0003BDAE6520101F46BF96BDF6A70EC20F011
:1038F000010805E175EC20F0BFEC1FF0DF6E1ADA6D
:10390000DF50E5522ED2106A0101F951E76E10180E
:10391000E8AE02D0E73402D0E750105C0AE2070EAE
:10392000E76EF919E8AE02D0E73402D0E750F95D4E
:1039300001E3000C010C000C0101F95107E0070E36
:10394000F95D04E0080EF95D01E0F4D913DA26EC24
:103950001BF0E552E5520101A29D0101F46BF96BE8
:103960001200FAD9E6520101955101E0AAD0190ED0
:10397000961901E197515EE0170E961901E19751F2
:1039800049E0160E961901E1975134E0140E96198C
:1039900001E197511AE0020E961901E092D0975179
:1039A00001E08FD0010EEA6A9A25E96E9B51EA2266
:1039B000EF50150A02E0000E85D0B6D903E10101EF
:1039C000F4817DD0B7D9110E19D00101A2AB77D007
:1039D00098C1F5F199C1F6F1010EB0D9000EE66E6D
:1039E000E66A010E99D9320EE66EE66A7ED90101C9
:1039F000010E1ED099D90BE09DD9120E9FD9000E51
:103A0000E66EE66A100E88D90101080E11D0010198
:103A1000030E0ED098C1F7F199C1F8F19AC1E6FFF3
:103A20009BC1E6FF8AEC20F0E552E5520101040E4D
:103A3000F96F45D07FD978D930E076D9110A10E0F6
:103A40001A0A0CE0010A08E0020A04E00F0A0AE17F
:103A5000090E09D00A0E07D00B0E05D00C0E03D0AC
:103A60000D0E01D0010EDF6EDFCF10F0116A126A69
:103A7000136A10C0E6FF11C0E6FF12C0E6FF13C0D4
:103A8000E6FF000EE66EE66A100EE66EA9EC10F098
:103A9000146E070EE15E14500FD00101A28D030ECB
:103AA0004DD9A40EE66E010EE66E110E35D9000951
:103AB00003E00101070E02D00101080EF96F010EAB
:103AC00001D0000EE5524DD137DF5BEF18F044D93D
:103AD000050EE126840E37D9020EF3CFDBFF030E6D
:103AE000F4CFDBFFD950020FE96EDACFEAFFEE50D8
:103AF000ED1001E179D00101F4B3F36BF351800DC6
:103B00000101F350ED5D106EF450EE59116E10C0CE
:103B1000DEFFDD6E2AD9113408E210508008000E55
:103B2000115403E2800EDE6EDD6A1FD90001800EA3
:103B3000111402E0DE6ADD6A7F0E0101116AED25D3
:103B4000106EEE511122070E0F0B05E0D8901132C6
:103B50001032E806FBE11006000E115A040E10C0E8
:103B6000DBFFCBD801E3DB2AF1C1EFFFC6D801E3CD
:103B7000DB2AF2C1EFFFC1D801E3DB2AF3C1EFFF7B
:103B8000BCD801E3DB2A040EDBCFEFFF020EDBCF54
:103B9000E6FF030EDBCFE6FFDECFE6FFDDCFE6FF7D
:103BA000F3C1E6FFABEC1FF0106E050EE15E1050A6
:103BB000F50EE66E010EE66ED8D8040E1026000E45
:103BC000112210C0E6FF11C0E6FF150EB7D85DEC5C
:103BD00018F0126E080EE15E1250000905E1CFD810
:103BE0000101F32BF493F491050EE15C02E2E16A2A
:103BF000E552E16EB6D0B0D8030EE126BBD82AEC70
:103C00001BF0E552E5520101F951080A67E00F0A7D
:103C100065E0010A60E0030A28E0010A1FE0070AE4
:103C20005DE0010A10E0030A02E0010A57D06DD8F6
:103C300055E070EC20F0000951E00101020EF96F2F
:103C4000F483F4814BD00101A2B748D00101F4A163
:103C500002D03DDF43D059D841E03FD05FEC20F0A7
:103C600000093CE00101050E34D0140E6CD8DE5280
:103C7000F3CFDEFFF4CFDDFFDD52D950010FE96E47
:103C8000DACFEAFFEE50ED1029E0010EDBCFE6FFC0
:103C9000020EDBCFE6FFD9CFE6FFDACFE6FF2DEC51
:103CA00020F0E552E552E552E552F70EE66E010EC0
:103CB000E66EDFCFE6FFE66A180E40D85DEC18F03E
:103CC000106E080EE15E1050000908E158D801019D
:103CD000060EF96F03D019D801E0F6DE030EE15CA1
:103CE00002E2E16AE552E16E3CD044D8E2EC1AF01F
:103CF000E552E552E552E5521200020EDBCFE9FF34
:103D0000DB2A030EDBCFEAFF120034D885EC1BF070
:103D1000E552E55200091200E66EA9EC10F0106EB3
:103D2000070EE15E105012009AC1E9FF9BC1EAFF45
:103D3000EF501200A8EC1FF09DEF1FF0E66EE66A50
:103D4000E66AE66A1200E66EE66AE66A98EC17F042
:103D5000E552E552E5521200D9CFE6FFE1CFD9FF97
:103D60001200E552E7CFD9FF1200DECF10F0DDCF11
:103D700011F01200FA0EE66E010EE66E1200880EC9
:0A3D8000E66E130EE66E75EF1EF0FE
:063D8A004DDA2AEC1BF0EB
:103D9000E552E55248DA85EC1BF0E552E5520009A0
:103DA00001E0010C000CF0D9E652F7D903E10ADA80
:103DB000FCE038D02DCFDFFFFD0EDB5001E0DF2A25
:103DC000FE0EDB5005E02ECFE6FF12EC30F004D003
:103DD0002ECFE6FF3BEC30F0E5522ECFE6FF97EC1E
:103DE0002DF0E552000903E1EDD9F7E01BD0DFCF5C
:103DF000E6FFDAD9E0D903E1E5D9FCE013D02ECF14
:103E0000E6FFBAEC2FF0E552DF6EDF5009E1FE0E5F
:103E1000DB5006E0E2D9C1D903E1D4D9FCE002D0FD
:103E2000D1D902E0000E03D0DF50C4E0010EE5520C
:103E3000B0D1AAD9CAD954E0FE0EDBCFE6FFB4D97F
:103E4000BAD903E1BFD9FCE04BD0010EE66EE66AB9
:103E5000AADFE552E552000943E0FB0EDB50000803
:103E60003AE2010EE66E2ECFE6FF1DEC2DF0E55294
:103E7000E5522ECFE6FF35EC2FF0E552000903E1C5
:103E8000A1D9F7E02DD02ECFE6FF8EEC2FF0E55232
:103E9000E66EA9D9E552E750EF6EFC0EDB2AFD0E67
:103EA00001E3DB2AFB0EDB06DB50000803E2010E18
:103EB000E66E01D0E66A2ECFE6FFD7EC2EF0E55293
:103EC000E5522ECFE6FFE6EC2FF0E5520009C5E102
:103ED00079D9F7E005D081D960D904E173D9FCE044
:103EE000000E01D0010E55D14FD96FD922E0FE0E40
:103EF000DBCFE6FF59D95FD903E164D9FCE019D0E3
:103F0000FB0EDB50000810E26ED9EF50E66E4CD984
:103F1000FC0EDB2AFD0E01E3DB2AFB0EDB064BD990
:103F2000EFE150D9FCE005D058D937D904E14AD99E
:103F3000FCE0000E01D0010E2CD1E66A2ECFE6FF88
:103F400043EC2EF0E552E552E66A5CD9030E52D1FD
:103F5000E66AB7EF20F018D901D9FC0EDBCFE6FFF7
:103F6000FA0EDBCFE6FFFB0EDBCFE6FFFE0EDB50EB
:103F7000310FEFD802E1000E01D0010E0AD104D9B1
:103F8000E6520A0EE66EE66AE66AE90EE66E010E93
:103F9000E66EE5EC2AF0106E050EE15E1050DED8FC
:103FA000010EDF6EEBD8400EE5D800094BE0010EA4
:103FB000E5D8400ECED846E0C00EDF14C00842E17E
:103FC000010EE66EEF0EE66E010EE66EE66A31DF7A
:103FD00020D9000937E0010EE66EF00EE66E010E04
:103FE000E66E010EB6D82EE0010EE66EF10EE66E1C
:103FF000010EE66E020EADD825E0010EE66EF20E61
:10400000E66E010EE66E030EA4D81CE0040EE66E0A
:10401000E90EE66E010EE66E040E9BD813E0010178
:10402000E95110E1EA510EE1020EEB190BE1EC51FE
:1040300009E1020EE66EED0EE66E010EE66E300E42
:1040400088D802E1000E07D0EDC1DFFFEEC1EDF12F
:10405000DFCFEEF1010EE5529CD0E0D8020E8ED8F3
:10406000110E77D820E0D9CFE9FFDACFEAFF080EAA
:104070000F0B06E0EC52D890ED32EF32E806FAE191
:10408000FD0EDBCFE9FFFE0EDBCFEAFFDFCFEFFF58
:10409000DFCFE6FFFB0EDBCFE6FFFC0EDBCFE6FF5C
:1040A000120E57D802E1000E01D0010E106E020E62
:1040B000E15C02E2E16AE552E16E10506AD064D838
:1040C000E6524CD8010E5AD8100E43D804E0700EB8
:1040D000DF14100802E0000E01D0010EE55259D0A5
:1040E000010EE66E8FD8020E85D0E66A40D83C0EEF
:1040F000E66EE66AE66AE66A98EC28F08AD8010E6F
:10410000E66E35D8320EE66EE66A22EC29F0E5520C
:10411000E552120083D8DF6ADE52140EDD6E020E05
:104120002DD8200E27D8140EE66EFD0EDBCFE6FF4D
:10413000FE0EDBCFE6FF210E1DD8010EDF6E1ED86E
:10414000100E18D8020EE15C02E2E16AE552E16E5F
:1041500020D0E66E6EDE5DD800091200F40EE66E29
:10416000010EE66E60D8E2EC1AF009EF21F04AD8B1
:10417000010E40D0E66EB8DE09EF21F0E66ED9CF31
:10418000E6FFDACFE6FF1200D9CFE6FFE1CFD9FF95
:104190001200E552E7CFD9FF12002ECFE6FFD7EC91
:1041A0002CF0E552000912002ECFE6FFD2EC2DF0E4
:1041B000E552E55212002ECFE6FF77EC2EF0E552E5
:1041C00000091200E2DD00091200E66A010EE66E47
:1041D000EADDE552E552000912002ECFE6FF64EC5D
:1041E00030F0E5521200FC0EDBCFE9FFFD0EDBCF15
:1041F000EAFF1200E66EA9EC10F0106E070EE15E09
:1042000010501200E66AE66AE66A000EE66EE66A9A
:104210001200E552E552E552E5521200B5DF020EFA
:10422000E126AEEF20F0E40EE66E010EE66E12001F
:10423000D9CFE6FFE1CFD9FFE652FD0EDB50DF6EAE
:10424000FE0EDB50010A12E0030A10E0010A0EE044
:10425000070A0CE0010A0AE0050A08E18C6AFD0E73
:10426000DBCFE7FFE79EE746E7CFDBFFDF5004E069
:10427000FD0EDB5000085BE2FE0EDB50050A3BE062
:10428000010A2BE0070A21E0010A17E0030A05E012
:10429000010A49E18C1C8C6E46D0010E8C6E8C504C
:1042A00004E063D98C50E824F9D7800E8C6E8C50D2
:1042B0003AE05BD98C407F0BF9D7010E8C6E8C50A5
:1042C00032E053D98C50E824F9D7800E8C6E8C5094
:1042D0002AE04BD98C407F0BF9D7810E8DD9420E45
:1042E0008BD9240E89D9180E87D9240E85D9420E70
:1042F00083D9810E17D0800E7FD9200E7DD9400E34
:104300007BD9100E79D9200E77D9080E75D9100EE9
:1043100073D9040E71D9080E6FD9020E6DD9040E2F
:104320006BD9010E8C6E21D9FD0EDB069FD78C6AEE
:10433000E552E552E7CFD9FF12008150080B01E0AA
:10434000010E126E8150040B01E0010E116E8150BE
:10435000020B01E0010E106E8150010BE8241010D9
:10436000E8241110E8241210E81C0F0B0101CE6F95
:10437000E8500001FF190101CF13CF51CE15D01322
:10438000CEC1FFF0CF5101E0D583120044D8790EA1
:10439000E66E4E0EE66ECDEC30F0E552E5520B0EB9
:1043A000E66EE66AE66A16D91AD9010EE66EE66A84
:1043B000E66AD70EE66E010EE66E11D90101D86BE2
:1043C000D96BDA6BDB6BDC6BDD6BDE6BDF6BE06BB1
:1043D000E16BE26BE36B1AEC0DF0E66A47EC27F059
:1043E000E552E66AFFEC22F0E552000906E0FA0E1B
:1043F000E66EE66AE66AE66AF9D8ECD8EBEC0CF011
:10440000E552E552140EE66EE66A020EE66E010E05
:10441000E66EF6EF22F03FEC2AF0FE0EC16EC26AA5
:10442000A10EC16EC280938AAD84190EB06E8A98B7
:1044300093988B90949093809382938493868C6AC4
:10444000956A9A909190CCEC30F0D0EC30F0010E5F
:10445000E66EE66A22EC29F0E552E552F28CF28E25
:104460001200C2B205D0C4CFCDF1C3CFCCF1C2820D
:10447000120012008BDF8A88D0EC29F00101D8519C
:10448000045C106ED9510558116EDA510658126E3F
:10449000DB5195D80A0E74D813E2D0EC29F004C091
:1044A000D8F105C0D9F106C0DAF107C0DBF132EC72
:1044B00019F090D892EC0DF0E552E552DADFDCD736
:1044C000D0EC29F00101DC51045C106EDD5105587F
:1044D000116EDE510658126EDF5171D8640E50D83D
:1044E00010E2D0EC29F004C0DCF105C0DDF106C01B
:1044F000DEF107C0DFF121DF0101D5A1BDD7B1DFBA
:10450000BBD7D0EC29F00101E051045C106EE15101
:104510000558116EE2510658126EE3510758136E9A
:10452000105002018D5D11508E5912508F59135049
:10453000905910E2D0EC29F004C0E0F105C0E1F19F
:1045400006C0E2F107C0E3F10101D5A195D755EC12
:1045500027F092D73FD85BEC27F0E552E5523AD8E6
:104560001CEC23F0E552E55287D7FB0EDBCFE6FFCC
:10457000FC0EDBCFE6FF22EC29F0E552E5521200FB
:10458000096E0A6A0B6A0C6A91C204F092C205F0C5
:1045900093C206F094C207F00BEC2EF000C014F0AA
:1045A00001C015F002C016F003C017F01050005CF7
:1045B0001150015812500258135003581200075856
:1045C000136E91C214F092C215F093C216F094C209
:1045D00017F01200CC0EE66E010EE66E1200E5EC4E
:1045E0002AF0106E050EE15E1050120021DEE55239
:0E45F000E552E552E55212008C6EB5EF22F056
:0245FE0041D9A1
:10460000FE0EDBCFA5F20201AB6BAC6B040EAE6FFE
:104610000B0EE66EE66A31D9000902E1010E0BD0FD
:10462000AEC2E6FF070EE66E28D9AEC2E6FF080E60
:10463000E66E23D9000E2AD124D90201AB51040A17
:104640002BE0070A22E0010A1AE0030A0DE0010A42
:1046500026E1EAD8EF50AE5D22E0E6D8EFCFAEF229
:10466000010EAB6FE7D81BD02AD9EF5018E1AC513F
:1046700016E110D9C1D8EF800201020E0BD0AC5167
:104680000EE1070EE2D8030E05D0AC5108E1080E8A
:10469000DCD8040EAB6F03D0AC5101E11DD902018F
:1046A000AC51060A3DE0030A2EE0010A22E0070AA7
:1046B00016E0010A0CE0030A02E0010A35D0A5C2A7
:1046C000E6FF12EC30F0E5520201020E27D0C7D807
:1046D0002BE0FA0EE66E93D80201030E1FD096D897
:1046E00023E09BD81FE0AAC2E6FF89D80201040E8E
:1046F00015D08CD819E091D815E0ADC2E6FF7FD86F
:104700000201050E0BD082D80FE087D80BE0A5C2BE
:10471000E6FF64EC30F0E5520201060EAC6F04D007
:10472000A5D802E00201AC6B0201AB5104E03FD816
:1047300002E2D2D8AC6BAAD0A4D87CD8ABD8C5D86A
:10474000A5C2E6FF12EC30F0E55289D802E12FD87D
:10475000FCE2FA0EE66E53D859D802E128D8FCE202
:104760005CD821E0FE0EDBCFE6FF49D84FD802E14E
:104770001ED8FCE252D817E0FD0EDBCFE6FF3FD893
:1047800045D802E114D8FCE248D80DE0A5C2E6FF06
:1047900064EC30F0E5526AD802E109D8FCE2E66A3E
:1047A00094D805D802E2000E01D0010E6FD0D0ECF3
:1047B00029F00201A651045C106EA7510558116E34
:1047C000A8510658126EA9510758136E8DC214F0E5
:1047D0008EC215F08FC216F090C217F0D890143622
:1047E0001536163617361050145C115015581250E5
:1047F000165813501758120068D85FEF24F0A5C25E
:10480000E6FFD2EC2DF0E552E5521200A5C2E6FF1C
:1048100077EC2EF0E55200091200A5C2E6FFBAECD3
:104820002FF0E552000912005DD8080EE926000EAF
:10483000EA221200D0EC29F004C0A6F205C0A7F2CB
:1048400006C0A8F207C0A9F21200AA6FAE1DE84088
:10485000E840E8401F0BAD6F010EAC6F1200A5C21F
:10486000E6FF97EC2DF0E55200091200A5C2E6FF25
:10487000D7EC2CF0E552000912005EDFE552E5525C
:104880001200D9CFE6FFE1CFD9FF1200E552E7CF02
:10489000D9FF1200880EE66EA5C2E6FF5BEC2DF094
:1048A000E552E552040EE66EE66AA5C2E6FF62EC4A
:1048B0002FF0E552E552E552010EE66E120012D8D5
:1048C0000A0EE926000EEA221200A5C2E6FF43EC1A
:1048D0002EF0E552E5521200E66A8EDFEF900201FB
:1048E000AB6B1200FD0EDBCFE9FFFE0EDBCFEAFF64
:0248F0001200B4
:0E48F20020D8B1EF24F012000F013983399560
:10490000C3EF2CF032D9DF6A01019E51010B04E1A3
:104910003DEC2BF0000901E1DF84D9CFE9FFDACFCC
:10492000EAFF0F013951020B02E0EF8801D0EF9846
:10493000DF5021D11AD9ACEC2CF0000911E0A0EC29
:104940002CF0DF6E43EC2BF0000903E00F013987F8
:1049500005D0DFCFE6FF74EC2BF0E552A6EC2CF08F
:104960000AD1CFEC2CF0000931E00101A1512CE07B
:104970000F013951040B0BE10F013351010B07E11A
:10498000E668B4EC2CF0E5520F0139851DD0010129
:10499000A151D880A0550BE2A16B0F013995399335
:1049A000C4EC1AF08DEC1BF0CBEC2CF00DD0A05128
:1049B000EA6A600FE96E000EEA22EF50E66EB4EC90
:1049C0002CF0E5520101A02BC9EC2CF01200E8D824
:1049D000C7D8EDD891EC2CF09CEC2CF0000C010128
:1049E000A251010B106E116A126A136AE66E11C0B1
:1049F000E6FF12C0E6FF13C0E6FF000EE66EE66AB1
:104A0000E66AA9EC10F0146E070EE15E1450120075
:104A1000030E0F01E76E3A19E8AE02D0E73402D078
:104A2000E7503A5D01E2000C010C95EC2CF0AAEC89
:104A30002CF00F013981010E3A6F5A0EEBEF25F081
:104A4000A8EC2CF0CBEC2CF091EC2CF089D8AFD862
:104A5000D0EF25F001019E6B9F6B916B926B120062
:104A600020EF25F07DD82AEC1BF0E552E5520F012E
:104A700039A129D02AD80F0139A705D081D81B0E1A
:104A800087D80F0139973A51030A1DE0010A15E052
:104A9000030A03E0010A17E0120096D814E0C1EC03
:104AA0002CF00F0133B104D0E668B4EC2CF0E552E1
:104AB0001E0E91D80F01020E04D086D804E00F011B
:104AC000030E3A6F1200120012004FD801019E51DE
:104AD000040B45E13DEC2BF0000941E153EC2BF0D8
:104AE000DF6E01019E51010B0AE10F013351010BF1
:104AF00006E1FF0EDF5CEAE101019E81E7D70101DB
:104B00009EB305D0550EDF5C02E19E819E839EA37D
:104B1000DDD7050E0F01116A2F25106E30511122BD
:104B200001011050915D1150925914E291C1E9FFB9
:104B300092C1EAFF912B000E9223000EE926020E8D
:104B4000EA22DFCFEFFFE3EC19F00009BFE001013B
:104B50009E85BCD77FDF14D81C0E1AD8B7D70BD0D0
:104B60003B0EE66E0F0EE66E1200D9CFE6FFE1CFE8
:104B7000D9FFE6521200E552E552E7CFD9FF120005
:104B8000E66AE66AE66AE66A000EE66EE66A120021
:104B9000E66EA9EC10F0106E070EE15E10501200E8
:104BA0000F01396B3A6B0101A06BA16B120026EC6F
:104BB0001BF0E552E55293EF2BF0E2EC1AF0E552D0
:104BC000E552E552E5521200CBDF85EC1BF0E552D1
:104BD000E55200091200E66EE66AC2DFDDEF25F05D
:104BE0004D46495F4556454E545F524543454956EB
:104BF000455F4255464645525F4F56455252554EC7
:104C00005F434F4D4D414E440D0A004D46495F45AF
:104C100056454E545F524543454956455F425546B9
:104C20004645525F4F56455252554E0D0A004D466D
:104C3000495F4556454E545F49504F445F52454188
:104C400044590D0A000D0A004D46495F4556454E30
:104C5000545F49504F445F41555448454E54494371
:104C60004154494F4E5F4641494C4544202D2065F3
:104C700072726F72203078004D46495F4556454E3E
:104C8000545F494450535F4641494C5552450D0AC3
:104C9000004D46495F4556454E545F49504F445F6D
:104CA00043414E4E4F545F434F4E4E4543540D0AC1
:104CB000004D46495F4556454E545F434845434B7A
:104CC0005F4C494E474F5F4F5054494F4E530D0A6A
:104CD000004D46495F4556454E545F4C494E474F3F
:104CE0005F4E4F545F535550504F525445440D0A38
:104CF000004D46495F4556454E545F494450535F09
:104D00004E4F545F535550504F525445440D0A0076
:104D10004D46495F4556454E545F49504F445F44A8
:104D2000455441434845440D0A004D46495F4556A8
:104D3000454E545F49504F445F41545441434845A8
:104D4000440D0A004D46495F4556454E545F464165
:104D500054414C5F4552524F520D0A004D46495F37
:104D60004556454E545F47454E4552414C5F45526E
:104D7000524F520D0A004D46495F4556454E545F0D
:104D800043414E4E4F545F5345545F455854524132
:104D90005F43555252454E540D0A004D46495F45FA
:104DA00056454E545F43505F4932435F434C4F5327
:104DB00045440D0A004D46495F4556454E545F43F4
:104DC000505F4F50454E5F4932430D0A004D4649F2
:104DD0005F4556454E545F43505F5345545F4E52B6
:104DE000455345540D0A00636F6D2E6D6963726FF4
:104DF000636869702E6D666944656D6F0002636F4C
:104E00006D2E6D6963726F636869702E69706F646F
:104E10006163636573736F72792E64656D6F3100C2
:104E20005A4832363635455958530000444D3234CD
:104E300030343131206F7220444D323430343132CD
:104E4000004D4649204163636573736F7279204456
:104E50006576656C6F706D656E74204B6974004D7E
:104E60006963726F6368697020546563686E6F6C04
:104E70006F677920496E632E0069506F6420446526
:0D4E80006D6F2041707020310D0A0D0A0089
:014E8D000024
:024E8E00D9CF7A
:104E9000E6FFE1CFD9FFFE0EDBCFAFF20201B06B30
:104EA000000EE552E7CFD9FF12000201B05102E136
:104EB000010EB06F1200D9CFE6FFE1CFD9FF02019A
:104EC000B0510B0A01E1AFD0010A01E1A1D0030A00
:104ED00001E176D0010A6FE00F0A5FE0010A58E0B5
:104EE000030A4FE0010A43E0070A3BE0010A32E00F
:104EF000030A02E0010A9FD006D90A0E15D9EF5025
:104F000001E099D0D0EC29F004C0B1F205C0B2F2B2
:104F100006C0B3F207C0B4F2880EE66EAFC2E6FF79
:104F20005BEC2DF0E552E552040EE66EE66AAFC288
:104F3000E6FF62EC2FF0E552E552E552010EE66E17
:104F4000A7D8EF82AFC2E6FF12EC30F0E5520201C3
:104F5000020E67D0C3D86FE0900EE66EA3D8030EA2
:104F600060D0A9D868E0E66A9DD8040E5AD0A3D8CC
:104F700062E0AFC2E6FF3BEC30F0E5520201050E05
:104F800050D0ACD858E0910EE66E8CD8060E49D0C1
:104F900092D851E097D8070E44D0A7D84CE0AFC2C2
:104FA000E6FF8EEC2FF0E5520001FD6F010EE66E7C
:104FB00090D8080E36D0A0D83EE084D8090E31D063
:104FC00094D839E0AFC2E6FF8EEC2FF0E552000135
:104FD000E8380F0BFE6FFD517F080AE268D8010E1A
:104FE000EF6EFD1D010FFD6FFE1D010FFE6F02D064
:104FF0005ED8EF6A88D8050E97D8FDC0EFFF83D83A
:10500000070E92D8FEC0EFFFE66A63D80A0E09D0F9
:1050100073D811E0AFC2E6FF64EC30F0E552020154
:105020000B0EB06F08D0AFC2E6FFD7EC2CF0E55204
:10503000000901E06FD80201B05126E0D0EC29F060
:105040000201B151045C106EB2510558116EB3519A
:105050000658126EB4510758136E8DC214F08EC2EA
:1050600015F08FC216F090C217F0D890143615368E
:10507000163617361050145C115015581250165829
:105080001350175801E246D8E552E7CFD9FF120076
:10509000AFC2E6FF43EC2EF0E552E55234D80A0EDB
:1050A00094EF28F0AFC2E6FFD2EC2DF039D02BD828
:1050B000060E94EF28F0AFC2E6FF77EC2EF0E55233
:1050C00000091200010EE66EAFC2E6FF1DEC2DF0E6
:1050D00027D0AFC2E6FFD7EC2EF022D0AFC2E6FF5A
:1050E00097EC2DF0E55200091200AFC2E6FF35EC57
:1050F0002FF0E55200091200AFC2E6FFE6EC2FF0F8
:10510000E55200091200FD0EDBCFE9FFFE0EDBCFFA
:10511000EAFF1200E66ABCDFEF920201B06B1200F8
:10512000E552E55202011200E926000EEA221200C1
:10513000D9CFE6FFE1CFD9FF040EE12679D0FB0EEF
:10514000DBCF10F0FC0EDBCF11F0FD0EDBCF12F049
:10515000FE0EDBCF13F0140E096E0A6A0B6A0C6A9E
:1051600010C004F011C005F012C006F013C007F023
:105170000BEC2EF000C010F001C011F002C012F0D4
:1051800003C013F010C0DFFF010E11C0DBFF020EE1
:1051900012C0DBFF030E13C0DBFFD9CFE9FFDACF6C
:1051A000EAFFAF0EEE5E000EEE5A000EEE5A000E53
:1051B000EE5ADECF05F0DECF06F0DECF07F0DDCF12
:1051C00008F0DD52DD520834000E081809E6D880D8
:1051D0002D0E0554000E0654000E0754000E085400
:1051E00001E326D0DECF05F0DECF06F0DECF07F0FC
:1051F000DDCF08F0DD52DD520834000E081809E654
:10520000D880000E0554000E0654000E0754000E00
:1052100008540EE20000D9CFE9FFDACFEAFF2A0EE8
:10522000EE5E000EEE5A000EEE5A000EEE5ADAD77F
:10523000040EE15C02E2E16AE552E16EE552E7CF7D
:10524000D9FF1200D9CFE6FFE1CFD9FF040EE12646
:10525000FD0EDBCF10F0FE0EDBCF11F0126A136AE9
:10526000D00E096E070E0A6E0B6A0C6A10C004F0AD
:1052700011C005F012C006F013C007F00BEC2EF0C1
:1052800000C010F001C011F002C012F003C013F012
:1052900010C0DFFF010E11C0DBFF020E12C0DBFFEA
:1052A000030E13C0DBFFD9CFE9FFDACFEAFFAA0E66
:1052B000EE5E000EEE5A000EEE5A000EEE5ADECFF3
:1052C00005F0DECF06F0DECF07F0DDCF08F0DD52CF
:1052D000DD520834000E081809E6D880C30E0554C4
:1052E000000E0654000E0754000E085402E327D0A7
:1052F00026D0DECF05F0DECF06F0DECF07F0DDCF23
:1053000008F0DD52DD520834000E081809E6D88096
:10531000000E0554000E0654000E0754000E0854EB
:105320000EE20000D9CFE9FFDACFEAFF270EEE5EEA
:10533000000EEE5A000EEE5A000EEE5ADAD7040EA8
:10534000E15C02E2E16AE552E16EE552E7CFD9FFA6
:02535000120049
:0E5352000201850E8D6F1E0E8E6F8F6B906B9D
:10536000080E916F926B936B946BD76AD66AF19427
:10537000F294F28A870ED56E1200F28A0000F29A39
:10538000D6CF95F2D7CF96F2B5C297F2B6C298F2C1
:10539000B7C299F2B8C29AF2F2B4EFD7F28A120009
:1053A000ECDF95C204F096C205F097C206F098C2F1
:1053B00007F0120058D896C2DFFF010E97C2DBFF3C
:1053C000020E98C2DBFF030E99C2DBFF3FD802E258
:1053D000E16AE552E16E4FD046D897C2DFFF010E79
:1053E00098C2DBFF020E99C2DBFF030E9AC2DBFFFD
:1053F0002DD802E2E16AE552E16E3DD0D9CFE6FF59
:10540000E1CFD9FFFB0EDBCF04F0FC0EDBCF05F0C4
:10541000FD0EDBCF06F0FE0EDBCF07F0030E0426F9
:10542000000E052206220722070E096E0A6A0B6A81
:105430000C6A8AEC30F01FD0F2A407D00201B52B21
:10544000000EB623B723B823F2941200DECF04F087
:10545000DECF05F0DECF06F0DDCF07F0DD52DD5206
:10546000040EE15C1200D9CFE6FFE1CFD9FF040EB4
:0E547000E126BDEF29F0E552E7CFD9FF12008B
:02547E00D08ECE
:10548000A9EF29F057D800EE00F0100EE80403E36E
:10549000EECFE4FFFBD700EE10F00C0EE80403E3C0
:1054A000EECFE4FFFBD7E65279EC24F0E55200EEB4
:1054B0001BF00C0EE80403E3E5CFEDFFFBD700EE95
:1054C0000FF0100EE80403E3E5CFEDFFFBD747D85C
:1054D0001100D8CFE4FFE0CFE4FFE46E2BD800EE5C
:1054E00000F0100EE80403E3EECFE4FFFBD700EE7C
:1054F00010F00C0EE80403E3EECFE4FFFBD7E65216
:105500001CEC2AF0E55200EE1BF00C0EE80403E35D
:10551000E5CFEDFFFBD700EE0FF0100EE80403E33C
:10552000E5CFEDFFFBD71BD8E550E5CFE0FFE5CF9A
:10553000D8FF1000DACFE4FFE2CFDAFFE9CFE4FFD3
:10554000EACFE4FFF6CFE4FFF7CFE4FFF5CFE4FFC7
:10555000F3CFE4FFF4CFE4FFFACFE4FF1200E5CF8E
:10556000FAFFE5CFF4FFE5CFF3FFE5CFF5FFE5CF99
:10557000F7FFE5CFF6FFE5CFEAFFE5CFE9FFE5CF9F
:04558000DAFF12003C
:0C558400FB0EE3CFF6FFFC0EE3CFF7FFB9
:10559000FD0EE3CFF8FFFE0EE3CFE9FFFF0EE3CFF2
:1055A000EAFFE9CFF3FFEACFF4FFF90EE35003E19E
:1055B000FA0EE35009E0F90EE30602E2FA0EE30602
:1055C0000900F5CFEEFFF1D71200FE0EE3CFE9FFA1
:1055D000FF0EE3CFEAFFE9CFF3FFEACFF4FFFB0EC4
:1055E000E35003E1FC0EE35009E0FB0EE30602E2A8
:1055F000FC0EE306FD0EE350EE6EF1D71200FB0E3B
:10560000E3CFF6FFFC0EE3CFF7FFFD0EE3CFF8FF8D
:10561000FE0EE3CFE9FFFF0EE3CFEAFFE9CFF3FF92
:10562000EACFF4FF0900F5CFEFFFEE66FBD71200DB
:10563000FF0EE3CFF8FFE552FF0EE3CFF7FFE55291
:10564000FF0EE3CFF6FFE552E66AE66AE66A090076
:10565000F55209E0FD0EE32A05E1FE0EE32A02E120
:10566000FF0EE32AF4D7FD0EE3CF05F0FE0EE3CFE5
:0A56700006F0FF0EE3CF07F0120072
:06567A000F013851375DFD
:1056800001E0000C010C0F013751106E116A8C0EF5
:10569000101804E1115002E1385104E03805375D7B
:1056A00001E0000C010CD9CFE6FFE1CFD9FFE652B3
:1056B0000F013851382BEA6A000FE96E010EEA2219
:1056C000EFCFDFFF3851106E116AD890115004E609
:1056D0008D0E105C000E115801E3386BDF50E5525F
:1056E000E552E7CFD9FF1200D9CFE6FFE1CFD9FFCE
:1056F0000F013751372BEA6A000FE96E010EEA22DB
:10570000FE0EDBCFEFFF3751106E116AD8901150AB
:1057100004E68D0E105C000E115801E3376BE55264
:0E572000E7CFD9FF12000F01376B386B120074
:02572E00D9CFD1
:10573000E6FFE1CFD9FF070EE126FE0EDBCFE9FF42
:10574000EA6AE9BEEA68D890E936EA36B90EE9268F
:10575000020EEA22EECFDEFFEDCFDDFFDECFE9FF66
:10576000DDCFEAFF020EE926000EEA22EF503F0BE2
:10577000E76E020EE7CFDBFFDECFE9FFDDCFEAFF0A
:10578000EE52EF50C00B106E030E10C0DBFF040E84
:10579000DB6A050EDB6A060EDB6A020EDBCF14F055
:1057A000156A166A176AD950030FE96EDACFEAFF55
:1057B0001450EE10106E1550EE101650EE101750DB
:1057C000EE101050106E070EE15C02E2E16AE55245
:0C57D000E16E1050E552E7CFD9FF120047
:0457DC007CEF24F04A
:1057E0007DEF24F0D9CFE6FFE1CFD9FFE65282EC7E
:1057F00024F0DF6EE5EC00F0000901E0DF8083ECCF
:105800001CF0000901E0DF82DF50E552E552E7CFEE
:10581000D9FF1200E7EC24F0CFEC00F070EC1CF0A4
:10582000000901E1040C000CEFEF24F008EF25F073
:1058300014EC01F0000901E0010C9BEC1CF00009E4
:1058400001E0010C000C15EF25F015EC01F09CECCB
:105850001CF020EF25F01DEC01F0000901E0010C27
:10586000B1EC1CF0000901E0010C000C2AEF25F05E
:1058700030EF25F032EC25F0F8EC09F0FBEF1DF0ED
:0458800064EF25F0BC
:0C5884001E0EF66E000EF76E000EF86EA1
:1058900002010900F550A06F0900F550A16F03E166
:1058A000A06701D03DD00900F5509B6F0900F5506D
:1058B0009C6F0900F5509D6F09000900F550E96ED5
:1058C0000900F550EA6E090009000900F5509E6FC5
:1058D0000900F5509F6F09000900F6CFA2F2F7CF3B
:1058E000A3F2F8CFA4F29BC2F6FF9CC2F7FF9DC2C1
:1058F000F8FF02019E5302E19F5307E00900F550B3
:10590000EE6E9E07F8E29F07F9D7A2C2F6FFA3C288
:10591000F7FFA4C2F8FF0201A007000EA15BBFD7EA
:02592000120073
:0E592200ADA2FED7AC6A1200900EAC6E900ED5
:105930009C6E000000001200040EAD16AD8A12002D
:10594000ACA202D0AC98AC88AF5012009E9A120064
:105950009D9A12009D8A12009D50200B03E09E50DC
:10596000200B01E1000C010CD9CFE6FFE1CFD9FFFC
:10597000FE0EDB50AE6EE552E7CFD9FF1200AD82CE
:10598000010CAD8A1200ADA2FED7AD9A06D8AD8A41
:1059900012009E9812009D9812009D8812009D5042
:0E59A000100B03E09E50100B01E1000C010CF7
:0259AE00D9CF4F
:1059B000E6FFE1CFD9FF020EE126FE0EDBCFE9FFC5
:1059C000EA6AE9BEEA68D890E936EA36B90EE9260D
:1059D000020EEA22EECFDEFFEDCFDDFF28D8010B6D
:1059E00017E125D8020B14E122D8040B11E11FD8CE
:1059F000080B0EE11CD8100B0BE1DECFE9FFDDCF69
:105A0000EAFF020EE926000EEA22EF50040B02E044
:105A1000000E01D0010E106E020EE15C02E2E16A9E
:105A2000E552E16E1050E552E7CFD9FF1200DECF0C
:0A5A3000E9FFDDCFEAFFEF5012009E
:065A3A00D9CFE6FFE1CF29
:105A4000D9FF020EE126FE0EDBCFE9FFEA6AE9BECE
:105A5000EA68D890E936EA36B90EE926020EEA225B
:105A6000EECFDEFFEDCFDDFFFD0EDB50DECFE9FF39
:105A7000DDCFEAFFE850010BF36EF346F346F34641
